:020000040800F2
:10000000380A002035020008352F00081F2C000890
:10001000312F0008051E0008CF380008000000003E
:100020000000000000000000000000004D33000848
:10003000AD23000800000000B93000083934000882
:100040004F0200084F0200084F0200084F0200084C
:100050004F0200084F0200084F0200084F0200083C
:100060004F0200084F0200084F0200084F0200082C
:100070004F0200084F0200084F0200084F0200081C
:100080004F0200084F0200084F0200084F0200080C
:100090004F0200084F0200084F0200084F020008FC
:1000A0004F0200084F0200084F0200084F020008EC
:1000B0004F0200084F0200084F0200084F020008DC
:1000C0004F0200084F0200084F0200084F020008CC
:1000D0004F020008B5340008ED3500084F02000853
:1000E0004F0200084F0200084F02000800F002F81B
:1000F00000F090F80AA090E8000C82448344AAF132
:100100000107DA4501D100F085F8AFF2090EBAE82F
:100110000F0013F0010F18BFFB1A43F0010318473B
:100120004852000068520000103A24BF78C878C1D5
:10013000FAD8520724BF30C830C144BF04680C60ED
:10014000704700000023002400250026103A28BF35
:1001500078C1FBD8520728BF30C148BF0B60704739
:100160006E2900F02F83702900F09D86662905F026
:100170000880652905F00580672905F0028061295E
:10018000AFF3008003681B0A28BF41F08001692992
:1001900000F0CC80642900F0C980752900F0C68089
:1001A0006F2900F02B86782900F06986E92900F094
:1001B000C585E42900F0C285F52900F0BF85EF2947
:1001C00000F02886F82900F068860368DB0928BF5C
:1001D00041F08001632900F04685732900F04B85CA
:1001E000E32900F04387F32900F048870020704797
:1001F0001FB500F0A7FE04000020002104F030F835
:10020000401C60600020002104F014F8E0601FBD75
:1002100010B510BD01F014F81146FFF7E9FF03F027
:100220006DFE01F040F803B4FFF7F2FF03BC03F0EA
:100230003FFE00000948804709480047FEE7FEE707
:10024000FEE7FEE7FEE7FEE7FEE7FEE7FEE7FEE786
:1002500004480549054A064B704700003D34000834
:10026000ED00000838040020380A0020380600207D
:1002700038060020704700007CB51D4616460C006D
:10028000009001D02044401E074B7B442A4669461B
:100290000190304600F0BDFC05461CB100206946C7
:1002A00000F0CAFC28467CBDB50900000FB41CB59F
:1002B000084B06AA7B4469460090059800F0A9FC0B
:1002C00004460020694600F0B7FC20461CBC5DF8DF
:1002D00014FB00008109000070B50C460546012A98
:1002E00005D02878800600D5EA69002302E00123C2
:1002F00005E05B1C934202D2E05C0028F9D1A869BA
:10030000E618C01AA861286A18442862284600F036
:10031000C7F904E0D5E9012114F8010B9047B44274
:10032000F8D3284600F0D2F970BD00002DE9F04165
:100330000646002410687529314616A510D000F035
:10034000D6F9002802DA404213A507E031688A078F
:1003500001D512A502E0490704D511A5012401E049
:1003600000F0CEF900210A2206F1240709E0B0FBD3
:10037000F2FCB0FBF2F302FB1C003030785418465C
:10038000491C0028F3D123462A463046BDE8F041F7
:1003900000F0BFB9000000002D0000002B0000009D
:1003A000200000002DE9F05F894604464FF0000A66
:1003B000DFF874B1FB44C0F820A02046E16888470C
:1003C000002874D0252806D0D4E901219047206A5E
:1003D000401C2062F1E700265F462046E16888471E
:1003E0002028054607DB312D05D2781910F8200C9E
:1003F00008B10643F1E7B00701D526F00406C4F8BA
:100400001CA00027C4F818A02A2D09D0284603F004
:1004100048FD38B304EB8708303DC8F8185019E0A0
:1004200059F8041B204604EB87029161E168884774
:10043000012F054618D1E069002820DA26F02006B1
:100440001DE0D8F8180000EB800005EB40003038C4
:10045000C8F818002046E1688847054603F021FDEA
:100460000028EED1012F0AD02E2D08D12046E168B8
:1004700088477F1C0546022F46F02006C4DBA06992
:10048000002803DA404246F00106A061F00701D0DF
:1004900026F010066C2D0BD0682D09D04C2D39D0CC
:1004A0006A2D35D0742D35D07A2D33D016E038E052
:1004B000E1682F4620468847B842054609D16C2F8F
:1004C00026D04FF48060E168064320468847054601
:1004D00004E06C2F1AD04FF4807006430DB3A5F1E1
:1004E0004100192802D8203546F400664A462946BC
:1004F000204626604E46FFF733FE80B101280BD020
:10050000F61D26F0070000F1080956E74020E4E751
:100510008020D8E70020D6E706F104094DE72846F9
:1005200052E7206ABDE8F09FCE4D000070B5064648
:1005300000F0B2F80468054630460A22002100F0B7
:10054000BDFC2C6070BD30B505460B462A4613F83D
:10055000014B12F8010B08B1A042F8D01CB10028E1
:1005600002D06D1CF1E7284630BD10B5431C02E0F7
:1005700010F8011B71B18107FAD14FF0013202C8A6
:100580008C1A8C4314EAC211F9D0C01A0A0603D09F
:10059000C01E10BDC01A10BD0A0401D0801E10BDBF
:1005A0000902FCD0401E10BD4FF000020429C0F02B
:1005B000128010F0030C00F01B80CCF1040CBCF195
:1005C000020F18BF00F8012BA8BF20F8022BA1EBE7
:1005D0000C0100F00DB85FEAC17C24BF00F8012BCC
:1005E00000F8012B48BF00F8012B70474FF00002C4
:1005F00000B5134694469646203922BFA0E80C5019
:10060000A0E80C50B1F12001BFF4F7AF090728BFF3
:10061000A0E80C5048BF0CC05DF804EB890028BF6F
:1006200040F8042B08BF704748BF20F8022B11F098
:10063000804F18BF00F8012B704710B5044610F02A
:10064000030F08BF11F0030F40F015804FF0013E7B
:10065000121FC0F20E8051F8043BA3EB0E0C2CEAE3
:10066000030C1CEACE1C08BF40F8043BF0D0A1F1FB
:10067000040102F10402521E08DB11F8013B002BB9
:1006800000F8013BF7D11146FFF78EFF204610BD61
:10069000704770477047704700487047D803002084
:1006A00070B5044685690068C10601D5302600E0B2
:1006B0002026C00707D070BDD4E9012130469047FD
:1006C000206A401C20626D1EF6D570BD70B50446D0
:1006D00085690078C00707D170BDD4E901212020C9
:1006E0009047206A401C20626D1EF6D570BD0968D7
:1006F0004A0501D540B27047C905FCD500B2704724
:1007000009684A0501D5C0B27047C905FCD580B259
:1007100070472DE9F0470D4699469246044600F190
:1007200024080168880604D5E06921F010012160E1
:1007300000E00120A84201DD471B00E00027A1697D
:100740007A1902EB0900081AA0612078C00602D4C9
:100750002046FFF7A5FF002608E0D4E901211AF89A
:1007600006009047206A401C761C20624E45F4DB50
:100770002078C0060AD52046FFF792FF06E0D4E9AC
:10078000012130209047206A401C2062381EA7F1CA
:100790000107F4DC07E0D4E9012118F805009047CF
:1007A000206A401C2062281EA5F10105F3DC2046CA
:1007B000FFF78CFF2078000602D50220BDE8F08705
:1007C0000120FBE711680268006A530501D5087033
:1007D0000AE0D30501D5088006E0130603D5C21749
:1007E000C1E9000200E008600120704770472DE970
:1007F000FF4F0C461E464FF0FF378BB0D2E9000189
:10080000DDF860800A908A46C1F30A5505B93D4675
:10081000002108464FF00000BAF1000F00F440003C
:1008200005DA00EB80004FF4400101EA50004FEA86
:100830009059B9F1010F00DDB9460A9850EA4A0013
:100840000ED044F61050A5F2FF3545432F14B8F1F1
:10085000000F1ED07542291E1EDDC9F100021CE0EA
:10086000B8F1010F4FF0000001D0302103E0F24356
:1008700005E02154401CB042FBDB30460022002141
:1008800021540B99C1F80880C1E900200FB0BDE8E0
:10089000F08FBD1B6D1CDEE74A4600DA694206A8F0
:1008A00000F040FC06AB93E8070003AB83E80700C9
:1008B00050460A9900F03EFD8DE80700A0F5005073
:1008C0001F3800900398002D09DD42F21F014A46AF
:1008D000084403A90390684600F09DFF08E0A0F5D6
:1008E00000504A461F3803A90390684600F0A7FF4E
:1008F0008DE807000004000C03D04FF0FF304108E2
:1009000000E01046B8F1000F03D000220092154617
:100910001EE0751E05D400F019FB303262556D1EC5
:10092000F9D5B3460122084302D000227F1C04E01F
:100930002078302801D100227F1E002A099786D016
:100940001DE0112D07DA00F001FB303262556D1CFD
:1009500050EA0102F5D1084302D00098C8B10EE078
:100960000021681E05E0235C625C63542254401E33
:10097000491C8142F7DBAB46A81B401E09900020B2
:1009800004F80B000B98099AC0F80880C0E9002B06
:100990007CE711264FF0000859E72DE9F04F884613
:1009A0000446D21D22F0070191B0D1E90001CDE942
:1009B0000A0103F062FA02460B98C00F01D02D2005
:1009C00007E02068810701D52B2002E0202101EA01
:1009D000C000032A099001D0072A05DB03464146DF
:1009E000204600F0F9FA0BE12078800601D5E06995
:1009F00000E00620B8F1650F814606D0B8F1660F19
:100A000018D0B8F1670F70D131E00020B9F1110FA3
:100A1000009001DB112301E009F101030AAA01A9F9
:100A20000CA8FFF7E4FEDDE90C70002609F10105D2
:100A3000834647E001204B4600904FF000470AAA4A
:100A400001A90CA8FFF7D3FEDDE90DB00C995D46B6
:100A5000002610B909F101000D18B9EB050003D407
:100A6000C0F1FF3609F10105A5EB09002BE0B9F152
:100A7000010F01DA4FF001090020B9F1110F0090C8
:100A8000484601DD112300E003460AAA01A90CA88B
:100A9000FFF7ADFEDDE90C704D4600268346207859
:100AA00000070AD4AB4500DA5D4601A8012D04DD3C
:100AB000411911F8011C302907D04F4502DA17F10E
:100AC000040F04DA012082460FE06D1EEEE7002FCE
:100AD00002DCED1B3E4403E0781CA84200DD7D1CD7
:100AE000B81B00F1010A4FF000472078000703D43B
:100AF000AA4501DB4FF0FF3A0021B7F1004F0DF19D
:100B000043088DF8431024D002202B23002F01DA54
:100B10007F422D230A21021EA0F1010000DC5FB1FB
:100B200097FBF1FC97FBF1F201FB1C7C17460CF1E3
:100B3000300C08F801CDEEE7A8F101000370218820
:100B4000090501D5452100E06521A0F1010800F863
:100B5000011C09980FA9A1EB0807FF1D00B1012096
:100B6000411901EBEA70A1693844081A401EA061DE
:100B70002078C00602D42046FFF792FD099828B1DC
:100B8000D4E901219047206A401C20622078C006E9
:100B900022D52046FFF784FD1EE0002E04DBB3457E
:100BA00002DD01A8805D00E03020D4E901219047FA
:100BB000206A401C2062761CAAF101005FEA000A4C
:100BC0000AD100F0BFF9C0680168405CD4E9012196
:100BD0009047206A401C2062281EA5F10105DCDC3C
:100BE00007E0D4E9012118F8010B9047206A401C66
:100BF0002062381EA7F10107F3DC2046FFF766FDEF
:100C0000032011B043E6000001694A1C0261087824
:100C1000704700B58FB0CDE901310021059105493C
:100C20007944CDE9031011466846FFF7BBFB0FB0CE
:100C300000BD0000E5FFFFFF0A6802F8010B0A6033
:100C40007047D1E900239A4202D2531C0B60107006
:100C5000704710B5436913B1AFF3008001E0FFF7AF
:100C60003BFB012010BD127800F124010A70002224
:100C70004A700122EDE711684FF0FF32E9E700000A
:100C80002DE9FF5F15468A460446DFF8AC80F8443C
:100C90000027D8E900103E46CDE9001010E03AF8F0
:100CA00016106A4602A800F0ABFA411C07D0217862
:100CB000890603D5E269391891420DD80744761C9C
:100CC0002078800602D5E069B84205DDAE42E6DB59
:100CD0003AF816000028E2D1A069C01BA0612046A6
:100CE000FFF7DEFCD8E90010CDE90010002017E086
:100CF0003AF818106A4602A800F082FAB0F1FF3FF5
:100D000081460BD000250DF1080B05E0D4E9012147
:100D10001BF8050090476D1C4D45F7D308F1010005
:100D2000B0428046E4DB206A384420622046FFF768
:100D3000CDFCBDE8FF9F0000064500002DE9F04115
:100D40008046D21D22F007020025D2E90002F529D3
:100D500015A614D0011E72F1000106DA0023D0EBB3
:100D6000030063EB020211A608E0D8F800108B071D
:100D700001D50FA602E0490701D50EA601251146AF
:100D8000002408F1240704E000F0E0F830323A557E
:100D9000641C50EA0102F7D12B46324621464046F8
:100DA000BDE8F041FFF7B5BC000000002D000000D9
:100DB0002B0000002000000030B4002100F12404CA
:100DC00008E002F00705D208303542EA4372DB083A
:100DD0006554491C52EA0305F3D10468002310A2AC
:100DE000250708D504F020040C4304D0C46901236E
:100DF0000CA2641EC46130BCFFF78BBC10B5044666
:100E000021461068FFF77CFC02462046BDE81040F2
:100E10000023D1E7D21D22F00701D1E90023CBE75F
:100E20000000000030000000F0B40D460188090504
:100E300002D5214C7C4402E01F4C7C440E3400213E
:100E400000F1240608E002F00F071209E75D42EA0C
:100E500003721B097754491C52EA0307F3D1027845
:100E60000023120704D5702D06D009B102231134D6
:100E70002246F0BCFFF74DBC01231034F8E770B5F3
:100E800004460D4621461068FFF73AFC0246294603
:100E90002046BDE870400023C6E7D21D22F00703BC
:100EA000D3E90023C0E70368126843F0200303601E
:100EB0000823C3610023B7E7684300002DE9F0472A
:100EC00091460F4680460446002614F8015B2DB17A
:100ED00000F030F80068405DC007F6D12B2D02D03D
:100EE0002D2D18D0641E4A463946204600F0CAF817
:100EF00027B13968A14201D1C7F800804FF0020440
:100F000071050BD54042002803DDFFF7C5FB0460E7
:100F1000A007BDE8F08746F48066E4E70028F8DA29
:100F2000FFF7BAFB04606FF00040F2E7004870473B
:100F3000D803002010B500F005F8001D10BD00BF5B
:100F40002133000000487047F803002030B5B0F1AD
:100F50000A024FEA900E71F100034EEA817EB0EB77
:100F60000E0061EB91014FEA101E4EEA017E10EB7C
:100F70000E0041EB11114FEA102E4EEA016E10EBFC
:100F80000E0041EB11214FEA104E4EEA014E10EBDC
:100F90000E0041EB1141401841F100014FEAD00031
:100FA00040EA41704FEAD10110EB80054FEA81041D
:100FB00044EA907444EB01046D1944EB0404521BA1
:100FC000A3414FF0000348BF0A3200D530BD401C9A
:100FD00041F1000130BD00002DE9F0411F460446FB
:100FE00003260168072A01F4006004DB08B116A596
:100FF00005E016A503E008B115A500E015A521F050
:1010000010002060A069C01EA0610FB1401EA06149
:101010002046FFF745FB4FB1D4E901213846904700
:10102000206A401C2062C01C206206E0206AFAE7A9
:10103000D4E9012115F8010B9047761EF8D220461D
:10104000FFF744FBBDE8F0814E414E006E616E003B
:10105000494E4600696E660010B5436913B1AFF39F
:10106000008001E0FFF70CFE012010BD128800F1A6
:10107000240182840022C2840122EDE711684FF02E
:10108000FF32E9E72DE9F05F824615468B460027DF
:101090000AF10104B9460078302801D09DB113E06F
:1010A00014F8010B0127782803D0582801D045B146
:1010B0000AE00DB1102D07D1002714F8010B1025FF
:1010C00002E0082500E00A250026B0460EE005FBF8
:1010D000080005FB06F101271FFA80F801EB104616
:1010E000B6F5803F00D3B94614F8010B294600F04D
:1010F000CCF80028EBDABBF1000F05D00FB1641E6D
:1011000000E05446CBF80040B9F1000F06D0FFF7DD
:10111000C3FA02210160C81EBDE8F09F48EA0640FC
:10112000FAE700002DE9F047814616468AB03348B9
:1011300078440DC88DE80D0030487844801C03AC1D
:101140000DC884E80D0041F69B300844372190FB20
:10115000F1F290FBF1F5A5F1800501FB12041B3CB7
:1011600002D56442012000E00020DFF890A0804614
:101170000027FA44AAF1BE0A0DE0E00709D0324682
:10118000684607EB47010AEB810100F058FB8DE848
:10119000070064107F1C002CEFD1184F7F44AC3F38
:1011A00018E0E80714D007EB04100DF1180A90E8D6
:1011B0000E008AE80E00C068F04201D1981908902C
:1011C000324606A903A800F03AFB03AB83E8070008
:1011D0006D10641C002DE4D132466946B8F1000F51
:1011E00003A802D000F017FB01E000F028FBC9E9DA
:1011F0000001C9F808200AB0BDE8F08710410000DE
:1012000070B516460C460546FFF794FE036893F842
:101210000101012806D0FF2C0FD8185D68B101200C
:101220002C7070BDD3F807013246214603F2071334
:1012300003442846BDE8704018474FF0FF3070BDAA
:101240007546FFF773FEAE4605006946534620F02B
:101250000700854618B020B5FEF7FAFFBDE820402C
:101260004FF000064FF000074FF000084FF0000B62
:1012700021F00701AC46ACE8C009ACE8C009ACE815
:10128000C009ACE8C0098D4670473A2800D2303812
:1012900020F02002412A01D3A2F13700884201D375
:1012A0004FF0FF3070470446AFF300802046FEF752
:1012B000BAFF00004FF0013C50F8042B51F8043BFA
:1012C0009A4221D1A2EB0C03934313EACC1317D11A
:1012D00050F8042B51F8043B9A4215D1A2EB0C03B1
:1012E000934313EACC130BD150F8042B51F8043B71
:1012F0009A4209D1A2EB0C03934313EACC13DBD03F
:101300004FF00000704700BFD01A01BAB1FA81F166
:1013100001F0180122FA01F0CB40C1F12001DBB24B
:10132000C0B2C01A2CFA01F3D11A914311EAC311C9
:10133000E6D170475FEA400C08BF91F0000F4FEA1A
:101340008C234FEAC12243EA51514FEA1C5018BF87
:1013500000F5F0404FEA300018BF41F000415FEA6D
:101360006C5C00F02980BCF1FF3F08BF40F080407A
:101370007047130C06BF12044FF0100C4FF0000C16
:10138000130E04BF12020CF1080C130F04BF12015C
:101390000CF1040C930F04BF92000CF1020CD30F5C
:1013A00004BF52000CF1010C11464FF00002A0F1F5
:1013B0001F00A0EB0C00704711F0004F08BF7047F2
:1013C00031F000413FF4D5AF0B0C06BF09044FF0DC
:1013D000100C4FF0000C0B0E04BF09020CF1080CAE
:1013E0000B0F04BF09010CF1040C8B0F04BF890023
:1013F0000CF1020CCB0F04BF49000CF1010CCCF135
:101400002003A0EB0C0022FA03F302FA0CF241EAEB
:10141000030100F10100704720F07F4C80EA0300D7
:1014200023F07F47ACEB070303F57C5300F000404B
:1014300003F1FF032DE980494FEA154B09B44FEA48
:10144000144325EA0B4E24EA03480FF2042606EB68
:10145000132749083E785FEA320203FB0667C7F5A7
:10146000000707FB06F64FEA54374FEAD64606F167
:10147000020607FB066CCCF1005C4FEA1C472CEA25
:10148000074C07FB06F40CFB06F504EB15464FEA88
:10149000961634BF00204FF000404FEAD13706FBCC
:1014A00007FC4FEA1C4C0CFB0BF7D21B03FB0CF7A1
:1014B00061EB07010CFB0EF7B0EB074072EB174234
:1014C0000CFB08F734BFA2EB0742B2EB074261EB1B
:1014D00017414FEA0C444FEA910706FB07FC4FEA1D
:1014E0001C4C0CFB0BF7B0EBC74072EB573203FB05
:1014F0000CF734BFA2EBC742B2EBC74261EB5731E6
:101500000CFB0EF7B0EBC70072EB57720CFB08F741
:1015100034BFA2EBC702B2EBC70261EB5771039F66
:101520004FEA816141EA921104EBCC044FEAD137D2
:101530004FEA826206FB07FC42EA90124FEA8060A3
:101540004FEA1C4C0CFB0BF7D21B03FB0CF761EBB7
:1015500007010CFB0EF7B0EB074072EB17420CFBD8
:1015600008F734BFA2EB0742B2EB074261EB174129
:101570004FEA8C554FEA910704EB9C2406FB07FCCD
:101580004FEA1C4C0CFB0BF7B0EBC74072EB573229
:1015900003FB0CF734BFA2EBC742B2EBC74261EBCF
:1015A00057310CFB0EF7B0EBC70072EB57720CFB18
:1015B00008F734BFA2EBC702B2EBC70261EB577169
:1015C00015EB4C254FEA816141EA92114FEA8262A4
:1015D0004FEAD13742EA901206FB07FC44F10004BF
:1015E0004FEA80604FEA1C4C0CFB0BF7D21B03FB4D
:1015F0000CF761EB07010CFB0EF7B0EB074072EB49
:1016000017420CFB08F734BFA2EB0742B2EB0742CC
:1016100061EB174115EB1C154FEA813141EA92410C
:101620004FEA823242EA90424FEA80304FEA0C762B
:1016300044F1000448EA03434EEA0B484FF0000E21
:10164000B2EB080C71EB030724BF624639464EEB40
:101650000E0E4FF0000B0018524149414BEB0B0BA3
:10166000B2EB080C71EB03077BF1000B24BF624661
:1016700039464EEB0E0E4FF0000B00185241494117
:101680004BEB0B0BB2EB080C71EB03077BF1000B80
:1016900024BF624639464EEB0E0E51EA020718BFD0
:1016A00046F0010616EB0E7655F1000254F10001EA
:1016B00003D5BDE88901BDE80088BDE88901BDE822
:1016C0000048B619524141EB0101A3F101037047F3
:1016D00080807F7E7D7C7B7A79787776767574736F
:1016E000727171706F6E6E6D6C6C6B6A6A6968682E
:1016F000676666656464636362616160605F5F5EC4
:101700005E5D5D5C5C5B5B5A5A5959585857575639
:10171000565555555454535352525251515050509E
:101720004F4F4F4E4E4D4D4D4C4C4C4B4B4B4A4AF0
:101730004A49494948484847474747464646454534
:10174000454444444443434343424242424141416D
:10175000002B26D4770021D01CB54FEA370703B4FD
:101760004FF010004FF010014FF000000FBCBDE82B
:1017700010400BF1010BBBF1010F08BF5FEA170727
:1017800022BF12F1010211F101014FF0004143F1BA
:10179000000300F0004043EA00007047F9D3570807
:1017A000DAE746EA064613F1400F4FEA16461FDD18
:1017B00013F1200FDFBF16430A46002120335B429E
:1017C000C8D0C3F1200746EA064602FA07F74FEAF7
:1017D000164646EA0706C3F1200722FA03F201FA89
:1017E00007F721FA03F14FF0000342EA0702B1E7DD
:1017F00046EA020646EA06464FEA164646EA010669
:10180000BCBF46EA0646360C4FF000034FF000021C
:101810004FF000019EE72DE9C048934630B491E8AF
:10182000380007C831EA400C48BF34EA430C03D5FE
:10183000FFF7F2FDFFF78CFFF0BCBDE800882DE953
:10184000C048934630B491E8380007C810F0804F84
:1018500008BF13F0804F03D100F005F8FFF778FFC1
:10186000F0BCBDE8008820F07F4780EA030023F049
:101870007F4C07EB0C03A3F57C5300F00040A3F171
:10188000FE0392F0000F00F0B38095F0000F00F01F
:1018900077802DE901494FEA11404FEA144621EAC9
:1018A000004800FB06FC24EA064708FB06F607FB97
:1018B00008F800FB07F718EB06484CEB164C4FEA0C
:1018C000124B18EB07484FEA15464CEB174022EA3B
:1018D0000B4E0BFB06FC25EA06470EFB06F607FB44
:1018E0000EFE0BFB07F71EEB064E4CEB164C4FF0B3
:1018F00000061EEB074E4CEB174B18EB0B0840F1A4
:10190000000018EB0E0B58EB000840F100008F1A96
:101910004FF000013CBFC943661B14BFB5EB040C7C
:1019200000213CBFC943F61B4FEA17444EEA8E0E16
:1019300027EA04454FEA1C4704FB07622CEA074CE0
:1019400005FB07F70CFB05F604FB0CFC16EB074642
:1019500042EB174216EB0C4642EB1C421BEB060611
:1019600058EB0202414146EA9E0601D5BDE80189D5
:10197000B619524141EB0101A3F10103BDE8018910
:101980004FEA14454FEA114724EA054621EA074C7D
:1019900005FB07F406FB07F70CFB06F105FB0CFC47
:1019A00011EB074144EB17444FEA124711EB0C418E
:1019B00044EB1C4422EA074C05FB07F206FB07F741
:1019C0000CFB06F605FB0CFC16EB074642EB174238
:1019D00016EB0C4642EB1C456A1854F1000148BF57
:1019E0007047B619524141EB0101A3F10103704761
:1019F00095F0000F37D04FEA11424FEA144721EA21
:101A0000024624EA074C02FB07F106FB07F70CFB32
:101A100006F402FB0CFC14EB074441EB17414FEAC0
:101A2000154714EB0C4441EB1C4125EA074C02FB23
:101A300007F506FB07F70CFB06F602FB0CFC16EBA2
:101A4000074645EB174516EB0C4645EB1C421219B1
:101A500051F1000148BF7047B619524141EB0101F5
:101A6000A3F1010370474FEA14454FEA114724EAF6
:101A7000054621EA074C05FB07F106FB07F70CFBBF
:101A800006F24FF0000605FB0CFC12EB074241EB9F
:101A9000174112EB0C4251EB1C4148BF70479218A2
:101AA00041EB0101A3F10103704721B1826842F0CB
:101AB0000102826003E0826822F0010282607047C6
:101AC00021B1826842F48072826003E0826822F46D
:101AD000807282607047014600208A6802F004022A
:101AE0000AB1012000E000207047014600208A680A
:101AF00002F008020AB1012000E000207047000057
:101B000030B502460020002350680F4C20400D796C
:101B10000C6844EA05242043506090680B4C204038
:101B2000D1E902542C434D7944EA450420439060A6
:101B3000D06A20F470000C7C641EE4B2234340EAB7
:101B40000350D06230BD0000FFFEF0FFFDF7F1FF53
:101B5000F0B504460D4600200021092D11DDE06896
:101B6000A5F10A0606EB4607072606FA07F18843A1
:101B7000A5F10A0606EB460603FA06F10843E06003
:101B80000CE0206905EB4507072606FA07F18843B4
:101B900005EB450603FA06F108432061072A0FDA30
:101BA000606B561E06EB86071F2606FA07F1884370
:101BB000561E06EB860605FA06F10843606322E02E
:101BC0000D2A0FDA206BD61F06EB86071F2606FAB2
:101BD00007F18843D61F06EB860605FA06F108438F
:101BE000206310E0E06AA2F10D0606EB86071F26CF
:101BF00006FA07F18843A2F10D0606EB860605FA00
:101C000006F10843E062F0BD816841F0080181609F
:101C1000704721B1826842F4A002826003E08268CA
:101C200022F4A00282607047816841F00401816063
:101C3000704710B501F01CF8642002F03BF900F089
:101C400008F800F00BF800F00EF8112000F02AF868
:101C500010BD10B5002000F025F810BD10B5012012
:101C600000F020F810BD10B5072000F01BF810BDE3
:101C700070B501F0A5F8472001F06EF800BF01F043
:101C8000EBF80028FBD0012001F030F806460020D8
:101C900001F02CF8044601F0B9F804EB062085B2F7
:101CA000284670BD10B5044601F08AF8462001F0C0
:101CB00053F800BF01F0D0F80028FBD0204601F017
:101CC0004BF800BF01F0C8F80028FBD001F09EF8E7
:101CD00010BD000010B5044603A307A20FA12046C3
:101CE000FEF7E4FA10BD00006C6F63616C686F73FF
:101CF000743A3830383000002F6465762D61706991
:101D00002F6465766963652F636F6E74726F6C2FD5
:101D100072656C61795F7374617465004745542026
:101D2000257320485454502F312E310D0A486F73BB
:101D3000743A25730D0A436F6E6E656374696F6E36
:101D40003A206B6565702D616C6976650D0A0D0A28
:101D5000000000002DE9F14FAEB0982108A8FEF771
:101D600045FC1B48006802F0D5FE04460D461948A4
:101D7000006802F0CFFE06460F461748006802F0E2
:101D8000C9FE804689461548006802F0C3FE8246B7
:101D90008B461348CDE90467CDE9064500885246D5
:101DA0005B461049CDE90089029008A8FEF77EFA4B
:101DB00008A8FEF7DAFB044608A80BA30EA21049F8
:101DC000CDE900402E98FEF771FA2FB0BDE8F08FF4
:101DD0001400002010000020040000200800002053
:101DE0001C000020005300086C6F63616C686F7307
:101DF000743A3830383000002F494F54000000004A
:101E0000AC52000800BFFEE74A7842700A780270C0
:101E10008A7882707047000008B50121042001F023
:101E200079F98020ADF8000004208DF803006946A0
:101E3000014800F057FE08BD0008014008B5012127
:101E4000042001F067F98020ADF8000010208DF823
:101E5000030003208DF802006946024800F042FEAC
:101E600008BD00000008014070B50025FFF7E6FF3F
:101E700080212C4800F0CAFE122002F01BF88021BD
:101E8000284800F0C5FE282002F021F8FFF7C4FF23
:101E9000142002F01CF88021224800F0AEFE002839
:101EA00029D104E0012002F012F8681CC5B280219B
:101EB0001C4800F0A2FE08B9642DF3DB002504E005
:101EC000012002F004F8681CC5B28021154800F01A
:101ED00094FE012801D1642DF2DB0025002405E0E9
:101EE00000F026F810490855601CC4B2052CF7DB39
:101EF000322001F0ECFF0C4800780B494978084487
:101F00000949897808440849C9780844074908708C
:101F1000054800790978884201D1012070BD002070
:101F2000FCE70000000801402D00002032000020E6
:101F30002DE9F0410025002400262CE004E00120DA
:101F400001F0C5FF601CC4B28021154800F055FEA9
:101F500008B9642CF3DB00241E2001F0B8FF002731
:101F600080210F4800F049FE012800D1012704E03C
:101F7000012001F0ACFF601CC4B28021084800F0D1
:101F80003CFE012801D1642CF2DB00246806050E1A
:101F90003D43701CC6B2082ED0DB2846BDE8F08158
:101FA0000008014021B1026842F00102026004E031
:101FB00002684FF6FE731A400260704701684FF6E0
:101FC000FE72114001600021016041608160C160CA
:101FD0004B49884208D14A490839496841F00F0104
:101FE000474A083A51608AE045491431884208D18D
:101FF00043490839496841F0F001414A083A5160C3
:102000007DE03F492831884208D13D490839496877
:1020100041F470613A4A083A516070E038493C3105
:10202000884208D136490839496841F47041344A38
:10203000083A516063E032495031884208D1304952
:102040000839496841F470212D4A083A516056E038
:102050002B496431884208D129490839496841F43B
:102060007001274A083A516049E025497831884291
:1020700008D123490839496841F07061204A083A7B
:1020800051603CE01F49884206D1011F096841F0B8
:102090000F01021F116032E01A491431884208D141
:1020A0001849091F096841F0F001164A121F116012
:1020B00025E014492831884208D11249091F0968CE
:1020C00041F470610F4A121F116018E00D493C3154
:1020D000884208D10B49091F096841F47041094A37
:1020E000121F11600BE007495031884207D10549A2
:1020F000091F096841F47021024A121F11607047DC
:10210000080002400804024010B50022026847F6A9
:10211000F0739A430C6A8B6823430C6923434C6920
:1021200023438C692343CC6923434C6A23438C6A41
:1021300023431A430260CB6843600B6883604B689B
:10214000C36010BD08B50121082000F0E3FF4FF483
:102150008050ADF8000010208DF8030003208DF8AA
:1021600002006946044800F0BDFC4FF4805102486B
:1021700000F04EFD08BD0000000C01402DE9F05FAD
:1021800000F0CAF800F06AF8CC2000F0DDF8442036
:1021900000F0DAF840F2EE2001F08CFE00F0BCF81E
:1021A00000F05CF8CC2000F0CFF8BE2000F0CCF8B6
:1021B00000F0A0F8834600F09DF882464FEA0A201E
:1021C00004B244EA0B04002C0DDAE043401C02F098
:1021D0008FFA074600220B4B02F0B4FA054602F0D4
:1021E00055F881460BE0204602F082FA07460022AD
:1021F000044B02F0A7FA054602F048F8814648462B
:10220000BDE8F09F0000B03F10B5FFF79BFF00F066
:1022100083F800F023F810BD08B54FF48050ADF8F6
:10222000000048208DF803006946024800F05AFC7F
:1022300008BD0000000C014008B54FF48050ADF817
:10224000000010208DF8030003208DF8020069467D
:10225000014800F047FC08BD000C014010B5002407
:10226000FFF7DAFF04E0601CC4B2012001F02FFE8A
:102270004FF480510F4800F0C0FC08B1642CF2DB31
:10228000642C01DB012010BD002404E0601CC4B2FA
:10229000012001F01CFE4FF48051064800F0ADFC17
:1022A00008B9F02CF2DBF02C01DB0120EBE7002079
:1022B000E9E70000000C014010B5FFF7BDFF4FF447
:1022C00080510B4800F0A2FC0A2001F000FEFFF74D
:1022D000A3FF4FF48051064800F08FFC012801D184
:1022E000012400E000242D2001F0F1FD204610BD66
:1022F000000C014070B50026002408E0FFF7DCFF69
:10230000054605FA04F03043C6B2601CC4B2082C7E
:10231000F4DB304670BD000010B5FFF78DFF4FF4C1
:102320008051084800F072FC40F2EE2001F0CFFD31
:102330004FF48051034800F06BFC0F2001F0C7FD03
:1023400010BD0000000C014070B50446FFF774FF9B
:10235000002526E004F00106641086B14FF4805198
:10236000114800F053FC082001F0B1FD4FF48051FA
:102370000D4800F04DFC3A2001F0A9FD0FE04FF4AC
:102380008051094800F042FC462001F0A0FD4FF4C6
:102390008051054800F03CFC022001F098FD681CCB
:1023A000C5B2082DD6DB70BD000C0140704700009F
:1023B00008B50121042000F0ADFE1020ADF80000AA
:1023C00000208DF803006946014800F08BFB08BD32
:1023D00000080140014800887047000058000020B4
:1023E00010B5FFF7E5FF00F001F810BD00B591B0A2
:1023F0000121084600F06EFE0121480200F08AFE2D
:102400003248FFF7DBFD3248069032480790002043
:1024100008900120099000200A900B904FF48070E2
:102420000C900D9020200E9000020F900020109034
:1024300006A92648FFF768FE01212448FFF7B2FDF0
:10244000002001908DF8080001208DF809004FF45C
:10245000602003900020049001208DF8140001A951
:102460001B484C38FFF74CFB4FF4404000F026FE71
:1024700005230122022116484C38FFF769FB012190
:1024800013484C38FFF71CFB012111484C38FFF76B
:102490000CFB0F484C38FFF7B7FB00BF0C484C381B
:1024A000FFF723FB0028F9D109484C38FFF7BCFBA4
:1024B00000BF07484C38FFF70EFB0028F9D1012177
:1024C00003484C38FFF7A5FB11B000BD08000240DF
:1024D0004C240140580000200148806870470000EB
:1024E000BC00002010B5FFF77BFF00200549086005
:1024F000486088600448C8604FF07E5008614861B9
:10250000886110BDBC0000200000C8412DE9F047E3
:1025100004463248C460FFF75DFF824602F076FC55
:1025200080464FF08B4102F08FFB07462C4902F0AA
:10253000B5FC05462948056029462A4802F0AEFC4C
:102540008046294902F080FB0746284902F07CFBBF
:10255000224948600A461169506802F09FFC814692
:102560004FF08041484602F065FD04D21B48806967
:102570001A49086103E01948406918490861174A77
:102580001169506802F08AFC144988601849204695
:1025900002F082FD8046174902F080FC07464FF0AA
:1025A0007E5102F0E3FA06460C498868314602F093
:1025B0004BFB0A4988608868002102F03BFC02D886
:1025C000002006498860054988680B4902F032FD01
:1025D00002D2094801498860BDE8F087BC000020AC
:1025E00000404E4500007A4400004D44000048433E
:1025F0000000C841508D973C0000A04110B500F08C
:102600002FF807A108A000F063F930B10AA000F08C
:10261000C1FF00F033F8002010BD0120FCE70000EE
:10262000434F4E4E4543540041542B43495053545D
:10263000415455530D0A0000544350E8BF9EE68EA6
:10264000A5E5B7B2E696ADE5BC80EFBC8CE5BC80F5
:10265000E5A78BE9878DE8BF9E2E2E2E0D0A000080
:1026600010B54FF480710348FDF79EFF002002492A
:10267000088010BDD80000205A00002008B51020A6
:102680008DF803008002ADF8000003208DF80200F1
:102690006946304800F026FA00224FF480412D4868
:1026A00000F0B8FAFA2001F005FC01229103294854
:1026B00000F0B0FA4FF4FA7001F0FCFBFFF7D0FF26
:1026C00025A000F067FF03E04FF4FA7001F0F2FB81
:1026D00023A124A000F0FCF80028F5D123A000F0ED
:1026E00059FF03E04FF4FA7001F0E4FB1CA122A0B3
:1026F00000F0EEF80028F5D123A000F04BFF03E036
:102700004FF4FA7001F0D6FB15A123A000F0E0F819
:102710000028F5D124A000F03DFF03E04FF4FA704B
:1027200001F0C8FB23A125A000F0D2F80028F5D1C4
:102730002DA000F02FFF03E04FF4FA7001F0BAFB78
:102740002DA12FA000F0C4F80028F5D137A000F08B
:1027500021FF08BD00100140312E2041540D0A0018
:102760004F4B000041540D0A00000000322E204360
:10277000574D4F44450D0A0041542B43574D4F448C
:10278000453D310D0A000000332E2041542B4357A4
:10279000444843500D0A000041542B4357444843DA
:1027A000503D312C310D0A00342E2043574A415000
:1027B0000D0A0000474F54204950000041542B435C
:1027C000574A41503D22636363636363222C226353
:1027D00068656E7A68657975736869776F6261623A
:1027E00061220D0A00000000352E20434950535449
:1027F0004152540D0A000000434F4E4E45435400D1
:1028000041542B43495053544152543D2254435058
:10281000222C223139322E3136382E34332E3138B3
:1028200035222C383038300D0A000000362E204575
:1028300053503832363620496E6974204F4B0D0A9A
:102840000000000070B505460C4641F288360020B5
:102850001C4908804FF400711B48FDF7A5FE1AE0E3
:1028600020211A4800F062FF012811D1174801F019
:1028700025F8C1B2134802880088401C114B18800B
:102880001148815418460088B0F5FF7F00D907E051
:10289000012001F00FFB3000A6F101018EB2DFD163
:1028A00000BF0848008808B9002070BD21462846AE
:1028B000FDF77AFE621E04492846FDF7BEFE0120A0
:1028C000F3E700005E000020D80100200044004033
:1028D0002DE9F04104460D46C82613A000F05AFE2B
:1028E0002046FDF742FE87B23A462146134800F0E3
:1028F000F0FF0FE000F090F848B929461048FDF7C6
:1029000022FE20B1FFF7ACFE0020BDE8F08164207C
:1029100001F0D0FA3000A6F10101CEB2EAD109A04F
:1029200000F038FE0120F0E7496E736964652053BA
:10293000656E64436D64310D0A0000000044004080
:10294000D8000020496E736964652053656E644346
:102950006D64320D0A00000030B589B004460D46A2
:10296000FFF77EFE2A4608A101A8FDF79FFC0AA1F9
:1029700001A8FFF7ADFF20B92A462146074800F01D
:10298000A8FF09B030BD000041542B4349505345C6
:102990004E443D25640D0A003E0000000044004006
:1029A0002DE9F04104460D4616460027FFF758FE74
:1029B000FFF724FE28B90EA000F0ECFD0020BDE8D2
:1029C000F0812046FDF7D1FD1FFA80F842462146EE
:1029D000104800F07EFF642001F06CFA3146284672
:1029E000FFF730FF0746642001F064FA3846E6E757
:1029F000544350E9878DE8BF9EE5A4B1E8B4A5EF44
:102A0000BC8C474554E8AFB7E6B182E7BB88E6AD7A
:102A1000A20D0A00004400400A48008808B90120BD
:102A200070470848008808490988884203D1002077
:102A300004490880F4E7034800880349088001201E
:102A4000EEE700005A0000205C00002010B51D4891
:102A5000007802280CD01B480078012804D11E20E1
:102A600000F050FF00F098FF1649087800F0CCFB0A
:102A700014484078022803D01249487800F0D0FB6F
:102A800010488078022803D00E49887800F0D4FBE3
:102A90000C48C078022803D00A49C87800F0D8FB57
:102AA00008480079022809D006480079012801D198
:102AB00000F018FA0349087900F0D6FB02A000F0F4
:102AC00069FD10BD28000020E7BBA7E794B5E59994
:102AD000A8E68EA7E588B6E5AE8CE688905C720A1B
:102AE000000000002DE9F0410246002500260020EC
:102AF00000230024002791F803C00CF00F0591F883
:102B000003C00CF0100CBCF1000F03D091F802C010
:102B10004CEA050591F800C0BCF1000F31D01468F3
:102B200000202BE04FF0010C0CFA00F3B1F800C0CC
:102B30000CEA03069E4220D183004FF00F0C0CFAE2
:102B400003F7BC4305FA03FC4CEA040491F803C004
:102B5000BCF1280F06D14FF0010C0CFA00FCC2F8B2
:102B600014C00AE091F803C0BCF1480F05D14FF042
:102B7000010C0CFA00FCC2F810C0401C0828D1D38C
:102B80001460B1F800C0BCF1FF0F34DD54680020C0
:102B90002EE000F1080C4FF0010808FA0CF3B1F830
:102BA00000C00CEA03069E4221D183004FF00F0CB7
:102BB0000CFA03F7BC4305FA03FC4CEA040491F851
:102BC00003C0BCF1280F05D100F1080C08FA0CF87D
:102BD000C2F8148091F803C0BCF1480F07D100F18E
:102BE000080C4FF0010808FA0CF8C2F81080401CDD
:102BF0000828CED35460BDE8F081024600209368D7
:102C00000B400BB1012000E000207047416170478C
:102C1000016170470AB1016100E04161704700BF86
:102C2000FEE7000010B50F48006820F070400D4925
:102C300008600846006840F04050086000200A49DB
:102C400008600A49C1F89C01052001F040F9012003
:102C500005490860052001F03AF900200349C1F850
:102C6000980110BD000C0140988121420080214252
:102C700008B5C020ADF8000014208DF80300012035
:102C80008DF8020069460448FFF72CFFC021024876
:102C9000FFF7BEFF08BD0000000C014010B5104852
:102CA000006820F070400E4908600846006840F057
:102CB0004050086000200B49086001200A49C1F813
:102CC0009C01052001F003F9012006490860052058
:102CD00001F0FDF800200449C1F8980110BD000082
:102CE000000C0140988121420080214270B50546C8
:102CF0001648006820F070401449086008460068D3
:102D000040F000400860002616E0002010490860EE
:102D1000052001F0DCF801200E49C1F89801600699
:102D2000040E0B487C38006808B1601CC4B2052052
:102D300001F0CDF8701CC6B2082EE6DB15B9FFF71E
:102D4000ADFF01E0FFF76EFF204670BD000C0140B3
:102D5000988121420080214270B5044615480068E0
:102D600020F07040134908600846006840F0405069
:102D70000860002010490860002517E0E0090E49AE
:102D8000091D08606006040E052001F0A0F801206E
:102D90000A49C1F89801052001F099F80020064978
:102DA0000860052001F093F8681CC5B2082DE5DB2A
:102DB00070BD0000000C014098812142008021423A
:102DC00010B50F48006820F070400D4908600846B3
:102DD000006840F04050086001200A4908600A4934
:102DE000C1F89801052001F072F80020054908603B
:102DF000052001F06CF800200349C1F8980110BDCE
:102E0000000C01409C8121420080214210B50F48F6
:102E1000006820F070400D4908600846006840F0E6
:102E20004050086000200A4908600A49C1F89C0126
:102E3000052001F04CF80120054908600549C1F85A
:102E40009C01052001F043F810BD0000000C01407A
:102E5000988121420080214210B51548006820F079
:102E60007040134908600846006840F00040086060
:102E7000012010490860052001F029F801200E49C1
:102E8000C1F89801052001F022F807E0601C84B227
:102E9000FA2C03DDFFF7BAFF002010BD054880388B
:102EA00000680028F2D10349091F08600120F4E7F7
:102EB000000C01409C8121420080214208B5032082
:102EC000ADF8000010208DF8030003208DF80200FB
:102ED00069460348FFF706FE00F010F808BD000041
:102EE0000008014010B501210348FFF78FFE0221C1
:102EF0000148FFF78DFE10BD0008014010B501210B
:102F00000348FFF783FE02210148FFF77FFE10BD53
:102F10000008014070B5FEF7ABFE054601F076FFF4
:102F20000446024901F090FE70BD00009A99993F55
:102F300000BFFEE77047000070B5002100230F229C
:102F4000C47804B3154C246804F4E064C4F5E06468
:102F5000210AC1F10403CA40447804FA03F18478D9
:102F60001440214309010E4C0678A155047804F061
:102F70001F050124AC4005786D11AD0005F1E02579
:102F8000C5F8004109E0047804F01F050124AC40B5
:102F9000044D0678761145F8264070BD0CED00E032
:102FA00000E400E080E100E002490143024A1160D0
:102FB000704700000000FA050CED00E02DE9FC4729
:102FC000814626A14846FDF7BEFA044627A1484699
:102FD000FDF7B9FA054629A14846FDF7B4FA0646B9
:102FE0002BA14846FDF7AFFA07462EA14846FDF74C
:102FF000AAFA80462CB104F10D00FDF797FA2C498E
:1030000008702DB105F10D00FDF790FA28494870C0
:103010002EB106F11000FDF789FA254988702FB10D
:1030200007F11200FDF782FA2149C870B8F1000FCC
:1030300005D008F10B00FDF779FA1D4908711C480D
:1030400000791B49C978CDE9001019488378427886
:103050000178184800F09EFABDE8FC872272656C82
:1030600061794C69676874223A0000002272656CCD
:1030700061795761746572223A0000002272656CB2
:1030800061794E75747269656E74223A00000000B1
:103090002272656C617948756D69646966696572EB
:1030A000223A00002272656C617946616E223A0014
:1030B000280000205C5200087047000001460020F4
:1030C000034A506820F440400843506070470000B5
:1030D0000010024029B1064A52690243044B5A616A
:1030E00004E0034A52698243014B5A617047000071
:1030F0000010024029B1064AD2690243044BDA614A
:1031000004E0034AD2698243014BDA617047000050
:103110000010024029B1064A92690243044B9A61A9
:1031200004E0034A92698243014B9A6170470000B0
:103130000010024030B500210022002400232D4D54
:103140006D6805F00C0121B1042905D0082923D1AF
:1031500005E0294D056022E0274D05601FE0254D63
:103160006D6805F47012234D6D6805F480340225F6
:1031700005EB92421CB9214D554305600BE01D4DF6
:103180006D6805F400351DB11C4D5543056002E026
:10319000194D5543056002E0174D056000BF00BFA3
:1031A000144D6D6805F0F0010909154D6B5C05685B
:1031B000DD4045600F4D6D6805F4E061090A104D72
:1031C0006B5C4568DD4085600A4D6D6805F46051B3
:1031D000C90A0B4D6B5C4568DD40C560054D6D68E7
:1031E00005F44041890B074D6B5CC568B5FBF3F5F1
:1031F000056130BD0010024000127A0000093D0058
:10320000330000204300002010B5044622464FF44E
:1032100080710248FFF7FEFC10BD0000000801406D
:1032200010B5044622464FF400710248FFF7F2FC45
:1032300010BD00000008014010B5044622464FF4BE
:1032400000710248FFF7E6FC10BD000000080140D5
:1032500010B5044622464FF400710248FFF7DAFC2D
:1032600010BD00000008014010B5044622464FF48E
:1032700000710248FFF7CEFC10BD000000080140BD
:1032800008B54FF48070ADF8000010208DF80300F1
:1032900003208DF8020069462A48FFF723FC4FF40B
:1032A00080712848FFF7B4FC4FF40070ADF80000BF
:1032B00010208DF8030003208DF802006946214894
:1032C000FFF710FC4FF400711E48FFF7A1FC4FF40C
:1032D0008060ADF8000010208DF8030003208DF809
:1032E000020069461748FFF7FDFB4FF4806115485F
:1032F000FFF78EFC4FF48070ADF8000010208DF8C1
:10330000030003208DF8020069460F48FFF7EAFB2F
:103310004FF480710C48FFF77BFC4FF40070ADF860
:10332000000010208DF8030003208DF8020069468C
:103330000548FFF7D7FB4FF400710348FFF768FC1F
:1033400008BD000000080140000C0140704710B5A6
:1033500000F002F810BD00000CB5002001900090B4
:103360003348006840F480303149086000BF30487D
:10337000006800F4003000900198401C0190009813
:1033800018B90198B0F5A06FF1D12948006800F490
:10339000003010B10120009001E000200090009862
:1033A000012843D12348006840F0100021490860FB
:1033B0000846006820F0030008600846006840F0F6
:1033C000020008601A484068194948600846406889
:1033D00048600846406840F480604860084640689D
:1033E00020F47C1048600846406840F4E8104860CB
:1033F0000846006840F08070086000BF0C48006814
:1034000000F000700028F9D00948406820F003005F
:10341000074948600846406840F00200486000BF25
:103420000348406800F00C000828F9D10CBD0000EA
:1034300000100240002002407047000010B5134801
:10344000006840F0010011490860084640681049D2
:1034500008400E494860084600680E4908400B497C
:1034600008600846006820F480200860084640682C
:1034700020F4FE0048604FF41F008860FFF767FFEC
:103480004FF000600449086010BD000000100240C9
:103490000000FFF8FFFFF6FE08ED00E010B5012187
:1034A00044F21D00FFF736FE01214804FFF722FE1B
:1034B00010BD000010B540F225510B4800F043F953
:1034C00088B140F22551084800F015F9064800F08F
:1034D000F5F906490870012005490870034801788C
:1034E000014800F0F0F910BD00380140480000200C
:1034F0004900002010B586B004464FF40070ADF8C6
:10350000140003208DF8160018208DF8170005A967
:103510001E48FFF7E7FA4FF48060ADF8140004206E
:103520008DF8170005A91948FFF7DCFA4FF4A060E1
:10353000FFF73AFD25208DF8000003208DF80100EB
:103540008DF8020001208DF803006846FFF7F4FCB7
:1035500001940020ADF80800ADF80A00ADF80C00A9
:10356000ADF810000C20ADF80E0001A9084800F0DD
:1035700039F9012240F22551054800F00EF90121E8
:10358000034800F0C7F806B010BD00000008014075
:10359000003801400FB410B5B4B0002437A8009033
:1035A000C92101A8009B369AFCF766FE0EE0204672
:1035B000621CD4B201AA115C0B4800F084F900BF70
:1035C0004021094800F0B2F80028F9D0C82C04DAEC
:1035D00001A8FCF7CAFFA042E9D80020009034B04F
:1035E00010BC5DF814FB00000038014010B540F23B
:1035F00025510E4800F0A7F8B0B10D480088FF280B
:1036000002D900200A4908800848001D0088C1B27C
:10361000074802880088401C054B188005488154E3
:103620002021024800F05EF810BD00000044004078
:103630005A000020D800002010B586B004460121B1
:103640000420FFF767FD01214804FFF753FD082020
:10365000ADF8140004208DF8170005A91F48FFF7E6
:1036600041FA0420ADF8140003208DF8160018204C
:103670008DF8170005A91948FFF734FA01940020C6
:10368000ADF80800ADF80A00ADF80C00ADF8100078
:103690000C20ADF80E0001A9114800F0A3F801229A
:1036A00040F225510E4800F078F801210C4800F056
:1036B00031F84FF4E060FFF777FC26208DF800002A
:1036C00003208DF801008DF8020001208DF8030021
:1036D0006846FFF731FC06B010BD0000000801404D
:1036E0000044004001F40072B2F5007F00D100BF39
:1036F000CA430280704710B50022002340F66A14C6
:10370000A14200D100BF0A1201249440A3B2DC43BD
:10371000048010BD21B1828942F40052828104E00C
:1037200082894DF6FF731A4082817047024600205D
:10373000B1F5007F00D100BF13880B400BB1012011
:1037400000E00020704770B50246002400230025E9
:10375000002040F66A16B14200D100BFC1F3421505
:1037600001F01F03012606FA03F3012D02D1968909
:10377000334006E0022D02D1168A334001E0968ADA
:1037800033400C12012606FA04F41688344013B1B3
:103790000CB1012000E0002070BDF0B5034600240C
:1037A00000260025002040F66A17B94200D100BF6C
:1037B0001846C1F3421401F01F06012707FA06F567
:1037C000012C01D10C3004E0022C01D1103000E0BA
:1037D00014301AB107682F43076002E00768AF434F
:1037E0000760F0BD2DE9F04786B005460E4600247F
:1037F000A24600BFA1460027B08900B100BF2F46F6
:103800002C8A4CF6FF700440F08804432C82AC896B
:103810004EF6F3100440B08831890843718908439B
:103820000443AC81AC8A4FF6FF400440B0890443A6
:10383000AC8201A8FFF77EFC1F48874202D1DDF869
:1038400010A001E0DDF80CA0A88900F4004040B110
:103850000AEBCA0000EB0A1031684900B0FBF1F82E
:1038600007E00AEBCA0000EB0A1031688900B0FBE0
:10387000F1F86420B8FBF0F004012009642101FB99
:103880001089A88900F4004040B1322000EBC90043
:10389000B0FBF1F000F00700044308E0322000EB39
:1038A00009106421B0FBF1F000F00F0004432C81FB
:1038B00006B0BDE8F0870000003801400146888866
:1038C000C0F308007047C1F308028280704700BF50
:1038D000FEE72DE9F04107460C46154600260DE0AF
:1038E00014F8011B3846FFF7EEFF00BF40213846B1
:1038F000FFF71CFF0028F9D0701C86B2AE42EFDB48
:10390000BDE8F08110B50446FF20054908704870F5
:103910008870601E81B2024A002000F003F810BDDA
:103920005500002030B503460C461546A34203DD82
:1039300018462346044600BF1E2B00DB30BD1E2C5C
:1039400000DB1D2408E003EB4301054A88182946E3
:10395000FEF75AFA581C83B2A342F4DD00BFEDE72C
:103960006000002008B501210820FFF7D3FB0220EA
:10397000ADF8000010208DF8030003208DF8020040
:1039800069460448FFF7AEF802210248FFF740F904
:1039900008BD0000000C014010B5002407E004EB56
:1039A0004401054A881800F05CFA601CC4B21E2C61
:1039B000F5DB00F003F810BD6000002010B5022117
:1039C0000348FFF723F94FF4967000F080FA10BD1A
:1039D000000C014070B5044600253EE204F0800072
:1039E00000287DD00221FE48FFF712F900BF00BF7A
:1039F00000BF00BF00BF00BF00BF00BF00BF00BFCF
:103A000000BF00BF00BF00BF00BF00BF00BF00BFBE
:103A100000BF00BF00BF00BF00BF00BF00BF00BFAE
:103A200000BF00BF00BF00BF00BF00BF00BF00BF9E
:103A300000BF00BF00BF00BF00BF00BF00BF00BF8E
:103A400000BF00BF00BF00BF00BF00BF00BF00BF7E
:103A500000BF00BF00BF00BF00BF00BF00BF00BF6E
:103A600000BF00BF00BF00BF00BF00BF00BF00BF5E
:103A700000BF00BF00BF00BF00BF00BF00BF00BF4E
:103A800000BF00BF00BF00BF00BF00BF00BF00BF3E
:103A900000BF00BF00BF00BF00BF00BF00BF00BF2E
:103AA00000BF00BF00BF00BF00BF00BF00BF00BF1E
:103AB00000BF00BF00BF00BF00BF00BF00BF00BF0E
:103AC00000BF00BF00BF00BF00BF00BF00BF00BFFE
:103AD00000BF00BF00BF00BF00BF00BF00BF00E0CD
:103AE0009EE000BF00BF00BF00BF00BF00BF00BF1F
:103AF00000BF00BF00BF00BF00BF00BF00BF00BFCE
:103B000000BF00BF00BF00BF00BF00BF00BF00BFBD
:103B100000BF00BF00BF00BF00BF00BF00BF00BFAD
:103B200000BF00BF00BF00BF00BF00BF00BF00BF9D
:103B300000BF00BF00BF00BF00BF00BF00BF00BF8D
:103B400000BF00BF00BF00BF00BF00BF00BF022119
:103B5000A348FFF75BF800BF00BF00BF00BF00BF76
:103B600000BF00BF00BF00BF00BF00BF00BF00BF5D
:103B700000BF00BF00BF00BF00BF00BF00BF00BF4D
:103B800000BF00BF00BF00BF00BF00BF00BF00BF3D
:103B900000BF00BF00BF00BF00BF00BF00BF00BF2D
:103BA00000BF00BF00BF00BF00BF00BF00BF00BF1D
:103BB00000BF00BF00BF00BF00BF00BF00BF00BF0D
:103BC00000BF00BF00BF00BF00BF00BF00BF00BFFD
:103BD00000BF00BF00BF00BF00BF00BF00BF00BFED
:103BE00000BF00BF00BF00BF00BF00BF00BF00BFDD
:103BF00000BF00BF00BF00BF00BF00BF00BF00BFCD
:103C000000BF00BF00BF00BF00BF00BF00BF00BFBC
:103C100000BF00BF00BF00BF00BF00BF00BF18E172
:103C200002216F48FEF7F4FF00BF00BF00BF00BFD6
:103C300000BF00BF00BF00BF00BF00BF00BF00BF8C
:103C400000BF00BF00BF00BF00BF00BF00BF00BF7C
:103C500000BF00BF00BF00BF00BF00BF00BF00BF6C
:103C600000BF00BF00BF00BF00BF00BF00BF00BF5C
:103C700000BF00BF00BF00BF00BF00BF00BF00BF4C
:103C800000BF00BF00BF00BF00BF00BF00BF00BF3C
:103C900000BF00BF00BF00BF00BF00BF00BF00BF2C
:103CA00000BF00BF00BF00BF00BF00BF00BF00BF1C
:103CB00000BF00BF00BF00BF00BF00BF00BF00BF0C
:103CC00000BF00BF00BF00BF00BF00BF00BF00BFFC
:103CD00000BF02214248FEF799FF00BF00BF00BFAE
:103CE00000BF00BF00BF00BF00BF00BF00BF00BFDC
:103CF00000BF00BF00BF00BF00BF00BF00BF00BFCC
:103D000000BF00BF00BF00BF00BF00BF00BF00BFBB
:103D100000BF00BF00BF00BF00BF00BF00BF00BFAB
:103D200000BF00BF00BF00BF00BF00BF00BF00BF9B
:103D300000BF00BF00BF00BF00BF00BF00BF00BF8B
:103D400000BF00BF00BF00BF00BF00BF00BF00BF7B
:103D500000BF00BF00BF00BF00BF00BF00BF00BF6B
:103D600000BF00BF00BF00BF00BF00BF00BF00BF5B
:103D700000BF00BF00BF00BF00BF00BF00BF00BF4B
:103D800000BF00BF00BF00BF00BF00BF00BF00BF3B
:103D900000BF00BF00BF00BF00BF00BF00BF00BF2B
:103DA00000BF00BF00BF00BF00BF00BF00BF00BF1B
:103DB00000BF00BF00BF00BF00BF00BF00BF00BF0B
:103DC00000BF00BF00BF00BF00BF00BF00BF00BFFB
:103DD00000BF00BF00BF00BF00BF00BF00BF01E0C9
:103DE000000C014000BF00BF00BF00BF00BF00BF0C
:103DF00000BF00BF00BF00BF00BF00BF00BF00BFCB
:103E000000BF00BF00BF00BF00BF00BF00BF00BFBA
:103E100000BF00BF00BF00BF00BF00BF00BF00BFAA
:103E200000BF00BF00BF00BF00BF00BF00BF00BF9A
:103E300000BF00BF00BF00BF00BF00BF00BF00BF8A
:103E400000BF00BF00BF00BF00BF00BF00BF00BF7A
:103E500000BF6006040E681CC5B2082DFFF6BEAD9B
:103E600070BD10B504462078FFF7B4FD6078FFF709
:103E7000B1FDA078FFF7AEFD10BD490050EAC120AA
:103E800018BF04204A0D18BF40F0010040F2FF7235
:103E9000B2EB515F08BF40F00200012808BF0520C7
:103EA000704730380A2801D201207047002070473F
:103EB00000BF704700B5034603E04FF47A7000F08E
:103EC00006F81800A3F101018BB2F6D100BD00EB9A
:103ED000C001C9004FF0E02251610021916105212C
:103EE000116100BF4FF0E021096901F48031002920
:103EF000F8D004214FF0E02211617047ADF58B6DD1
:103F00004FF4C871B2A8FCF771FBC82180A8FCF778
:103F10006DFB4FF4FA7103A8FCF768FBFFF7BEFADC
:103F20004FF4E130FFF7E6FA40217248FFF7DAFB81
:103F300020217048FFF7D6FBFEF7D4FAFEF764F9AC
:103F4000FFF79EF9FEF7BAFFFFF70CFDFDF771FED4
:103F50004FF41650FFF770FBFEF790FB66A0FFF7DB
:103F600019FBC6E072480068401C71490860B0F552
:103F7000FA6F73D300200860FEF700F96D490860FE
:103F800008460068FEF7C2FAFEF7A6FA6A4908601A
:103F9000FEF7C0FF044600F019FF68490880FDF7EE
:103FA00063FF002831D06649487800F0B8FB8246AC
:103FB0000022644B00F044FA06460F466049087838
:103FC00000F0ADFB804632463B4600F091F90446D6
:103FD00000F05CF95C4908605949C87800F09FFB23
:103FE00006460022574B00F02BFA04460D46544972
:103FF000887800F094FB804622462B4600F078F942
:10400000824600F043F9514908604F48006800F0CB
:1040100081FD04460D464D48006800F07BFD0646D4
:1040200032460B464AA0CDE90045FFF7B3FA4348B4
:10403000018850A0FFF7AEFA3E48006800F06AFD24
:1040400004460D463C48006800F064FD06463246D2
:104050000B464EA0CDE90045FFF79CFA5448006896
:10406000401C5349086041F28831884213D3002034
:104070004F490860B2A8FDF76DFEFEF7BFFAB2A87F
:10408000FCF773FA84B22146B2A8FEF765FCB2A928
:1040900048A0FFF77FFA4E480068401C4C49086072
:1040A00040F6B831884221D300204949086049A030
:1040B000FFF770FA80A8FDF70DFE4FF4FA7103A820
:1040C000FCF794FA4FF4FA7203A980A8FEF768FC93
:1040D00048B103A946A0FFF75DFA03A8FEF76EFFFB
:1040E000FEF7B4FC02E04DA0FFF754FA0120FFF701
:1040F000E1FE37E70038014045535038323636E5A7
:10410000889DE5A78BE58C96E5AE8CE68890EFBCA4
:104110008CE4BCA0E6849FE599A8E98787E99B86A3
:10412000E5BC80E5A78BEFBC810D0A0D0A000000FD
:104130001800002014000020100000201C000020A7
:104140002D00002000002440040000200800002072
:10415000E6B8A9E5BAA6EFBC9A252E31662043EF52
:10416000BC8CE6B9BFE5BAA6EFBC9A252E31662015
:10417000200D0A00E58589E785A7E5BCBAE5BAA662
:10418000EFBC9A2564206C75780D0A0045433A20EF
:10419000252E3266206D532F636D2C20E6B0B4E6D9
:1041A000B8A93A20252E326620430D0A00000000EF
:1041B00020000020E695B0E68DAEE4B88AE4BCA00D
:1041C000E68890E58A9FEFBC9A25730D0A0D0A00D8
:1041D00024000020E8AFB7E6B182E7BBA7E794B5BB
:1041E000E599A8E78AB6E680812E2E2E0D0A0000FA
:1041F000E78AB6E68081E8AFB7E6B182E68890E567
:104200008A9FEFBC8CE8BF94E59B9EE695B0E68D57
:10421000AEEFBC9A25730D0A00000000E78AB6E6EF
:104220008081E8AFB7E6B182E5A4B1E8B4A55C72DD
:104230000A00000010B500290AD00878002807D02D
:1042400005487844FDF736F8002801D0002010BD5D
:104250000248784410BD0000461100003E110000E5
:1042600010B500290AD00878002807D005487844FE
:10427000FDF720F8002801D0002010BD0248784446
:1042800010BD0000361100002E11000021F0004288
:10429000A2F16052B2F5801F01F0004328BFD2F1B5
:1042A0007F6C0BD95FEA001C43EAC20242EB5070FC
:1042B00018BF704728BF20F001007047B2F5801F7B
:1042C000BCBF184670474FEA410C1CF5001F02D2D4
:1042D000084600F0AABE70B500F0DEFA00000089C2
:1042E000FFF7F6BF4FF00040A0F5800070470000D8
:1042F00010B591EA030F48BF83F0004300F1288313
:10430000841A71EB030C05D2121943EB0C03001B4A
:1043100061EB0C01DFF824E14FEA1154A4EB135CCC
:104320001EEA430F18BF9EEA445F73D023EA0E03D0
:10433000DCF1200E21EA045143F4801332D322FA37
:104340000CFE10EB0E0023FA0CFE41EB0E01CCF13B
:10435000200E03FA0EFE10EB0E0051F10001B1F534
:10436000801FCCF1200E32D201EB045112FA0EF272
:10437000BDE8104058BF7047401C38BF5FEA42029A
:1043800018BF7047002814BF20F0010041F1000160
:104390004FEA410313F5001F38BF7047A1F1C04138
:1043A00000F0C8BA012A43EB0302ACF1200CDCF1A7
:1043B0001F0E32BF4FF0000E23FA0CF310EB030078
:1043C00041EB0451B4EB115FD0D0A1EB045101F5E6
:1043D000801149085FEA300001EB04510ED350F11F
:1043E000000038BF12FA0EFE08D1BDE81040C9E740
:1043F000401C38BF5FEA4202CAD1C3E7BDE81040A3
:104400004FEA410313F5001F38BF7047A1F1C041C7
:1044100000F090BA9EEA445F08D011EA5E0FBDE852
:10442000104004BF01F0004100207047BDE810407B
:1044300070B500F031FA00BF64FBBE3E0000E0FF43
:104440002DE9C04130B4DFF8A0C23CEA111418BF16
:104450003CEA131400F0EC8081EA03051CEA111415
:1044600044EAD57418BF1CEA131500F0C780A4EB0A
:1044700005044FF0004545EAC12145EAC32341EA5E
:10448000505143EA525304F17F74994204F50034C9
:104490004FEAC0204FEAC22208BF904200F09C8041
:1044A0004FEA13650FF24016765D4FEA134506FB9F
:1044B00005F7C7F1807706FB07F74FEAD737A7FB69
:1044C00003687642C8F58038A7FB06CE38BFA8F14E
:1044D000010807FB08E64FF0000EA6FB028CE6FB86
:1044E00003CEDCF1000CCEF1004E38BFAEF1010E70
:1044F000A6FB0C584FF000074FF00005E6FB0E87B7
:10450000A1FB08C6A0FB07CE16EB0E0645F1000581
:10451000E1FB076515F1E04E7EBFA4F580345FEA4C
:1045200046066D4116F1800745F100054FEA172751
:104530004FEA066647EA0567A6F1DE46B6F1805FF8
:104540004FEA15251FD9384624F0010C05EBC4713C
:10455000BCF1FE6F01EB0C1102D8F0BCBDE800818C
:1045600024425CBF01F5801E9EEAC47F02D4F0BCE9
:10457000BDE80081244238D4F0BCA1F1C041BDE8BF
:10458000004100F0D7B94FEAD22242EA43524FEA43
:10459000D323A7FB02864FEAD02040EA415007FB15
:1045A00003661EEA0E0F4FEAD12105FB026658BFD3
:1045B000A6EB0056B6EB00564FEA520E4EEAC37E0B
:1045C00018EB0E0E56EB530EBDD518EB02085E41EC
:1045D0007F1C55F10005B6E74FF480154FF000073A
:1045E0004FF000064FF00008ADE7F0BC4FF00000C0
:1045F00001F1C04101F00041BDE8008111EA0C1F4A
:104600000CEA131500D00CE013EA0C1F00F0258013
:104610004FF00000F0BC81EA030101F00041BDE869
:104620000081F0BCBDE8004181EA030100F082B9DD
:10463000F0BCBDE8004170B500F02EF9097EFC3EEB
:1046400000F007B881EA03014FF0000001F00041DB
:10465000704781EA030100F06DB9F0BCBDE800418C
:104660004FF0000021497047FFFDFBF9F7F5F4F228
:10467000F0EEEDEBE9E8E6E4E3E1E0DEDDDBDAD8FD
:10468000D7D5D4D3D1D0CFCDCCCBCAC8C7C6C5C45B
:10469000C2C1C0BFBEBDBCBBBAB9B8B7B6B5B4B372
:1046A000B2B1B0AFAEADACABAAA9A8A8A7A6A5A45D
:1046B000A3A3A2A1A09F9F9E9D9C9C9B9A99999821
:1046C0009797969595949393929191908F8F8E8EC4
:1046D0008D8C8C8B8B8A8989888887878685858451
:1046E00084838382828181800000FF070000F87F3D
:1046F00010F0004248BF4042B0FA80F310FA03F1D4
:104700000AD0C3F11D0303F580634FEA415002EB69
:10471000035202EBD12170474FF000007047B0FA0E
:1047200080F310FA03F10AD0C3F11D0303F580638F
:104730004FEA41504FEA035202EBD12170474FF04C
:1047400000007047DFF848C170B51CEA111E1EBF9B
:104750001CEA13159EEA0C0F95EA0C0F00F06F800F
:1047600081EA030423EA4C134EEAD47E21EA4C1179
:1047700041F4801143F48013AE44A1FB024CA0FB32
:104780000365AEF17F7E361955EB0C05A1FB034C9A
:104790004CF10003A0FB021C16EB0C06654153F123
:1047A0000003094218BF46F0010613F4007F0BD145
:1047B0004FEA03314FEA0530340341EA155140EA2C
:1047C00016506FF003020AE04FEAC3214FEAC520FA
:1047D000F40241EA555140EA56506FF0020202EBF2
:1047E0002E4201EB025585EACE710AD05FEA440CF5
:1047F00018BF24F0004450F1000041F1000120EA0C
:10480000D47040F2FE7C624500D270BDA84214BF55
:104810004FF080444FF04044002E08BF0024BEF10A
:10482000806FA8BFA1F1C041BDE8704080F28280D6
:104830004FF0000001F1C04101F0004170479EEAD5
:104840000C0F0CEA131518BF95EA0C0F06D04FF0A9
:10485000000081EA030E0EF0004170BD00F01CF86C
:104860008900013E00F007B800F009B84FEA430C98
:104870005FEA5C5C08D081EA030100F05BB84FEAB4
:10488000410C5FEA5C5CF6D14FF0000001497047D3
:104890000000FF070000F87F0EF1020E2EF0030E5D
:1048A0005EF8046B364205D4012A43EB030515F587
:1048B000001F12D8012841EB010C1CF5001F0CD879
:1048C0000ED14FEAD17C15F5001F0CEB4C0C0CF10E
:1048D000020C08BF4CEBD37C04E04FF0080C01E065
:1048E0004FEAD37C0CEB4C0526FA05F606F00706DA
:1048F000B6F1040C06D20EEB860CBDE870404CF00D
:10490000010C6047DFE80CF0090B02024FF0004198
:104910004FF00000A1F5002170BD19461046012896
:1049200051EB010418BFD4F5001484BF002001F03E
:10493000004170BD0808A0F500114FEA3101704731
:1049400010B591EA030F48BF83F000433FF5D8ACA0
:10495000841A71EB030C07D212198CF0004C43EB54
:104960000C03001B61EB0C01DFF8A4E14FEA1154CA
:10497000A4EB135C1EEA430F18BF9EEA445F00F0ED
:10498000B08023EA6E03524221EA0451C3EB6E0366
:1049900038BF5B1EDCF1200E25D322FA0CFE10EB93
:1049A0000E0043FA0CFE41EB0E01CCF1200E03FA8F
:1049B0000EFE10EB0E0051F10001CCF1200E29D4B7
:1049C00012FA0EF201EB0451BDE8104058BF7047D7
:1049D000401C1CBFB2F1004F704700280CBF491C9F
:1049E00020F00100704712EB020E43EB030218BFE8
:1049F0004FF0010E4EEA4202ACF1200CDCF11E0E2B
:104A000054D943FA0CFE10EB0E0051F1FF31CCF1FA
:104A10001E0ED5D50EF1010E12FA0EFE404141EBED
:104A2000010101EB445C5FEA5C5C10D910EBDE70C5
:104A300001EB045138BFBEF1004FBDE8104018BF74
:104A4000704700280CBF491C20F00100704730D28D
:104A50004FEAD42C11F5001124F400641BD0B1FAF4
:104A600081F20B3AA41AA41ED2F12003914030FA2D
:104A700003F31943904001EBCC71002C01EB04517E
:104A8000BDE81040A8BF704701F1C0414FF00000E1
:104A900001F000417047B0FA80F310FA03F100D141
:104AA00010BDE41A173C4805C90AE4E701EB0451BC
:104AB00010BD491001EB0451BDE810404FEA300031
:104AC00002E04FF0000170474A0008BF0042F8D0F2
:104AD000B2F5001F28BF704701F000414FF0000001
:104AE00070479EEA445F07D011EA5E0FBDE81040B0
:104AF00004BF002100207047BDE8104070B5FFF7EB
:104B0000CBFE00BF40DFF63E83F000411046704709
:104B10000000E0FF43004FEAD30C4FEA3C0C434057
:104B20001FBF40070CF1605113F0FE4F70471CF09F
:104B3000006F03D100200CF0004170470CF00043DF
:104B400043EA507010B540EACC0000F028FA00BFEC
:104B5000000000924FEA0001FFF7ECBE4FF0004169
:104B60004FF00000A1F500217047000090EA010F0E
:104B700048BF81F0004100F19682421A3CBF801A82
:104B800089184FEAD0524FF07F4C1CEA410FA2EB3C
:104B9000D15318BF9CEA026F00F03B804FF0004CED
:104BA0004CEA00204CEA012121FA03FC10EB0C0C2A
:104BB0001ED202F1FF325FEA1C2040EBC25038BF28
:104BC00070471CF07F0F4FEA400C18BFBCF17F4FBD
:104BD00038BF7047C3F12003994008BF20F001009F
:104BE000BCF17F4F38BF7047A0F1C04000F01DBA44
:104BF0004FEA3C00000A40EBC25028BF1CF0FF0FF8
:104C00004FEA400CE6D018BFBCF17F4F38BF704769
:104C1000EAE79CEA026F05D010EA5C0F08BF00F0DB
:104C20000040704710B500F0BAF900BF64FBBE3E0B
:104C3000401058BFC0F14040491058BFC1F1404139
:104C40008142EFF3008070474FF47F0C1CEAD012D2
:104C50001EBF1CEAD11392EA0C0F93EA0C0F00F06E
:104C6000858090EA010F48BF42F4807240F4000C46
:104C700041F400002CF07F4120F07F4000B58142DC
:104C8000A2EB03020FF2081CACEB504EC0F1000087
:104C90009EF800E04FEA4E0E00FB0EFC38BF4900C4
:104CA0004FEA2C1C02F5FA020CFB0EF34FEACE1E63
:104CB0004FEA112C4FEAC1210EEB635E42EB224218
:104CC0000EFB0CFC4FEA1C5300FB03114FEA112CA6
:104CD0004FEA01310EFB0CFC4FEADC4C00FB0C11DF
:104CE000C14228BF09184CEB03335DF804EB10EB0D
:104CF000410143EBC250B2F57C0F38BF704729D554
:104D000012F0F00F1CBF00F1C04000F000407047EF
:104D1000008182838485868788898B8C8D8E8F9194
:104D20009293959697999A9C9D9FA0A2A3A5A7A8B8
:104D3000AAACAEB0B2B3B5B7B9BCBEC0C2C5C7C9E4
:104D4000CCCED1D4D7D9DCDFE2E6E9ECF0F3F7FA48
:104D5000FE0000004FEA400C0CF1807CBCF17E4F5D
:104D600028BF7047B0F1C04000F05FB990EA010F72
:104D70000CEAD11348BF42F48072624538BF6345E4
:104D800007D213F47F0F16D080EA010000F0004034
:104D9000704710B500F003F9097EFC3E00F005B83D
:104DA00080EA010000F00040704780EA010000F056
:104DB000004000F03AB912F47F0F04BF0248704778
:104DC00080EA010000F031B90000C07FC10DD1F1CF
:104DD0009E0206DB4FEA002343F0004323FA02F071
:104DE0007047004207D54FEA4001B1F1FE4F02D2B1
:104DF0004FF00000704710B500F0D1F849922480C0
:104E0000002070476FEA200070470000B0FA80F37E
:104E100010FA03F2C3F19D030AD0D90501EB122069
:104E2000530638BF704700F1010008BF20F00100B1
:104E30007047000050EA010C00F113801CF5000FD0
:104E400058BFBCF5000F01D48842704707D710F552
:104E5000000F58BF11F5000F15D4884270478942E2
:104E600070471CF5000F04D5BCF5000FF7D5814243
:104E700070474FF0807C1CEB400F38BF1CEB410F9C
:104E800001D28142704710B500F089F892244900A0
:104E90004FF000504FF08051FFF7CABE4FF47F0C27
:104EA0001CEAD0121EBF1CEAD11392EA0C0F93EA3F
:104EB0000C0F00F0478090EA010F48BF42F4807267
:104EC0004FF0004C4CEA00204CEA012102EB0302B7
:104ED000A0FB0113A2F50002002918BF43F0010353
:104EE0005B0028BF4FEA330342EB22425FEA132CF8
:104EF0004CEBC2502EBFBCEB436FB2F57C0F70473A
:104F00004FEA036CBCF1004F08BF20F00100B2F57E
:104F10007C0F38BF70470BD582F0FF0212F5803F3F
:104F2000C8BF704700F1C040D8BF00F000407047D4
:104F300000F5000C5FEA4C0C48BF7047B0F1C04070
:104F400000F073B890EA010F0CEAD11348BF42F4A5
:104F50008072624538BF634504D280EA010000F0E8
:104F60000040704710B500F01AF800BF8900013EFC
:104F700000F007B800F009B85FEA410C5FEA1C6C6A
:104F800008D080EA010000F050B85FEA400C5FEA08
:104F90001C6CF6D14FF00040A0F5800070470EF178
:104FA000020E2EF0030E5EF8044B244204D44FEAA6
:104FB0004102B2F17F4F11D84FEA4003B3F17F4F66
:104FC0000CD80ED14FEAD07CB2F17F4F0CEB4C0CD9
:104FD0000CF1020C08BF4CEBD17C04E04FF0080C44
:104FE00001E04FEAD17C0CEB4C0324FA03F404F00B
:104FF0000704B4F1040C06D20EEB840CBDE810409B
:105000004CF0010C6047DFE80CF0070802024FF09B
:105010000040A0F5800010BD0846420018BFD2F144
:10502000807288BF00F0004010BDFF2141EAD050DF
:10503000C005704751EA000C00F113801CF5000F09
:1050400058BFBCF5000F01D48142704707D711F556
:10505000000F58BF10F5000F15D4814270478942E8
:1050600070471CF5000F04D5BCF5000FF7D588423A
:1050700070474FF0807C1CEB410F38BF1CEB400F9A
:1050800001D28842704780EA010081EA000180EA8B
:105090000100FFF7F8BE000090EA010F48BF81F061
:1050A00000413FF56AAD421A04D882F00042A0EBFD
:1050B000020011444FEAD0524FF07F4C1CEA410FDE
:1050C000A2EBD15318BF9CEA026F4AD04FF0004CBC
:1050D0004CEA00204CEA012121FA03FCB0EB0C0C55
:1050E0000FD412F0FE0F36D05FEA4C001DD500122F
:1050F00040EBC25038BF70471CF03F0F18BF7047DD
:105100000BE0A2F101025FEA1C2040EBC25038BF65
:1051100070471CF07F0F18BF7047C3F12003994000
:1051200014BF401E20F00100704780084FEA122390
:1051300008BF7047B0FA80FCA2EB0C02CCF1280C3F
:1051400060FA0CF093EA122F04BF00EBC2507047D4
:105150004FEAC3707047130A5FEADC1008BF70475C
:10516000F6E79CEA026F04D010EA5C0F08BF00204B
:10517000704710B5FFF713FF40DFF63E81F00040A7
:105180007047FBF70ABC04000008000000000000A4
:1051900000020001000010000000000000000000FC
:1051A000303132333435363738394142434445465D
:1051B0004030580030313233343536373839616257
:1051C000636465664030780002400000000000A083
:1051D0000000000005400000000000C800000000C2
:1051E0000C4000000000409C00000000194000003E
:1051F0000020BCBE0000000034400000BFC91B8E70
:1052000000000004B5400000504BCFD06607E2CF4D
:10521000010000006C4100003E8251AADFEEA7347D
:1052200001000000D9420000DCB5A0E23A301F972F
:10523000FFFFFFFFB4450000FD25A0C8E9A3C14F53
:10524000FFFFFFFFFF3F00000000008000000000A4
:10525000FF3F00000000008000000000E8A7A3E678
:105260009E90E7BBA7E794B5E599A8E78AB6E680E4
:1052700081EFBC9A52454C4159313D25642C205256
:10528000454C4159323D25642C2052454C415933FF
:105290003D25642C2052454C4159343D25642C2039
:1052A00052454C4159353D25640D0A00504F535429
:1052B00020257320485454502F312E310D0A486F49
:1052C00073743A25730D0A436F6E74656E742D54B2
:1052D0007970653A6170706C69636174696F6E2F83
:1052E0006A736F6E0D0A436F6E74656E742D4C6534
:1052F0006E6774683A25640D0A0D0A257300000074
:105300007B2261697254656D706572617475726536
:10531000223A252E31662C2261697248756D6964C6
:10532000697479223A252E31662C226C696768747B
:10533000496E74656E73697479223A25642C22650E
:105340006356616C7565223A252E32662C22776190
:1053500074657254656D7065726174757265223A18
:10536000252E32667D000000B454000800000020A5
:1053700060000000280100081455000860000020AB
:10538000D8090000440100081C0000004300000090
:10539000F8FFFFFF0C0000000E0000000F000000EF
:1053A0002E0000001001000043000000F8FFFFFF86
:1053B0000040404040404040404041414141414028
:1053C00040404040404040404040404040404040DD
:1053D000400502020202020202020202020202026C
:1053E0000220202020202020202020020202020271
:1053F00002029090909090901010101010101010C9
:1054000010101010101010101010101002020202D4
:105410000202888888888888080808080808080818
:105420000808080808080808080808080202020214
:10543000400000000000000000000000000000002C
:10544000000000000000000000000000000000005C
:10545000000000000000000000000000000000004C
:10546000000000000000000000000000000000003C
:10547000000000000000000000000000000000002C
:10548000000000000000000000000000000000001C
:10549000000000000000000000000000000000000C
:1054A00000000000000000000000000000000000FC
:1054B00000000000000000000000000000000000EC
:1054C00000000000000000000000000000000000DC
:1054D00000000000000000000000000000000000CC
:1054E00000000000000000000000000102030401B1
:1054F0000203040607080902040608000000000071
:10550000000000000000000000000000000000009B
:045510000000000097
:0400000508000235B8
:00000001FF
