:020000040800F2
:100000003007002001010008C90F0008DB0C0008C0
:10001000C50F00081D0700080318000800000000B5
:10002000000000000000000000000000F9110008BE
:10003000AD08000800000000E1100008E51200080B
:100040001B0100081B0100081B0100081B01000820
:100050001B0100081B0100081B0100081B01000810
:100060001B0100081B0100081B0100081B01000800
:100070001B0100081B0100081B0100081B010008F0
:100080001B0100081B0100081B0100081B010008E0
:100090001B0100081B0100081B0100081B010008D0
:1000A0001B0100081B0100081B0100081B010008C0
:1000B0001B0100081B0100081B0100081B010008B0
:1000C0001B0100081B0100081B0100081B010008A0
:1000D0001B010008F9130008211500081B01000886
:1000E0001B0100081B0100081B010008DFF80CD0F1
:1000F00000F002FB004800472D22000830070020D6
:100100000648804706480047FEE7FEE7FEE7FEE7B1
:10011000FEE7FEE7FEE7FEE7FEE7FEE7E91200087E
:10012000ED00000840EA01039B0703D009E008C97D
:10013000121F08C0042AFAD203E011F8013B00F8AC
:10014000013B521EF9D27047D2B201E000F8012BF8
:10015000491EFBD270470022F6E710B513460A4647
:1001600004461946FFF7F0FF204610BD421E12F864
:10017000013F002BFBD111F8013B02F8013B002BA2
:10018000F9D1704730B505462A460B4612F8010BE7
:1001900013F8014B08B1A042F8D01CB1002802D0DE
:1001A0006D1CF1E7284630BD421C10F8011B0029E8
:1001B000FBD1801A704710B5044600E0401C03785C
:1001C000002BFBD100E0401C521E04D311F8013B70
:1001D0000370002BF7D100210170204610BD2DE9DE
:1001E000FE4F804681EA0300C00F0C46009021F0CC
:1001F000004123F00045B8EB0200A94105D240467A
:10020000214690461C460B46024623F00040104310
:1002100047D0270DC7F30A00C3F30A510290401AD2
:10022000019040286BDAC3F3130040F4801B009860
:10023000924620B10023D2EB030A63EB0B0B01982B
:100240005946C0F14002504600F041F906460D46BD
:1002500050465946019A00F059F910EB08006141E7
:10026000002487EA115284EAE7731A4340D0009AC7
:1002700062B3019A012A4FEA075215DC001B61EBB9
:1002800002014FF0004202EA0752CDE90042001C91
:1002900041F5801132462B4600F059F903B0BDE814
:1002A000F08F40462146F9E7001B61EB0201001C7C
:1002B00041F5801300185B412018A2F5001747EBA9
:1002C000030140EAD570B6196D4111E06D084FEA9F
:1002D000360645EAC0754FEA0752001B61EB020182
:1002E000001C41F5801149084FEA300000195141C6
:1002F00032462B4603B0BDE8F04F00F019B9009824
:10030000012240000023D0EB020263EBE07300986F
:1003100021464FEAE074B8EB000061EB0401E9E725
:1003200083F000435BE781F0004158E72DE9FE4F81
:1003300081EA030404F0004421F0004100944FF0EE
:10034000000B23F0004350EA01045ED052EA03049C
:100350005BD0C3F30A54C1F30A552C44A4F2F3341E
:100360000194A0FB0254C1F3130141F48011C3F3C3
:10037000130343F4801301FB024400FB034E840A81
:10038000970A44EA815447EA8357A4FB0768029519
:100390008D0A05FB07854FEA932C04FB0C542705B7
:1003A000029D4FEA065847EA1637B5EB08056EEB93
:1003B000070C870E920E47EA811742EA8312A7FBC9
:1003C0000201B6EB0B0164EB00042B0D43EA0C3386
:1003D0005E1844EB1C50DA465146E7FB0201C5F3B8
:1003E00013044FEA0B3343EA14534FEA0432019CDF
:1003F00043EA0603A4F10C040294009CCDE900B486
:1004000000F0A5F803B0BDE8F08F00200146F9E741
:1004100030B5041E71F1000404DB4FF0004440428B
:1004200064EB0101141E73F1000405DB1C464FF060
:100430000043524263EB0403994208BF904230BD2F
:1004400030B50B46014600202022012409E021FAA4
:1004500002F59D4205D303FA02F5491B04FA02F5A1
:100460002844151EA2F10102F1DC30BD2DE9F05F38
:100470000546002092469B46884606468146402413
:100480001BE0284641464746224600F02FF85346D7
:100490005A46C01A914110D311461846224600F020
:1004A00016F82D1A67EB01084F462246012000215D
:1004B00000F00DF817EB00094E41201EA4F10104D5
:1004C000DFDC484631462A464346BDE8F09F202AF5
:1004D00004DB203A00FA02F1002070479140C2F19B
:1004E000200320FA03F3194390407047202A04DBCD
:1004F000203A21FA02F00021704721FA02F3D0409D
:10050000C2F120029140084319467047202A06DBB9
:10051000CB17203A41FA02F043EAE07306E041FAD1
:1005200002F3D040C2F120029140084319467047BF
:1005300010B5141E73F1000408DA401C41F10001EB
:1005400092185B411A4301D120F0010010BD2DE942
:10055000F04D92469B4611B1B1FA81F202E0B0FA39
:1005600080F220329046FFF7B2FF04460F4640EA81
:100570000A0041EA0B0153465A46084313D011467C
:1005800053EA010019D0C8F140025046FFF7AEFF10
:1005900005460E46504659464246FFF798FF084327
:1005A00005D0012004E020463946BDE8F08D00204A
:1005B000054346EAE0762C4337430A986305E40A8C
:1005C000A0EB08000022FD0A44EA47540A3002D595
:1005D00000200146E9E7010510196941DDE90845F8
:1005E00000196941BDE8F04DA2E72DE9F04D81EA1F
:1005F000030404F0004B21F0004514464FF0000ABC
:1006000023F0004150EA050220D054EA01021DD037
:10061000C5F30A570246C5F31303C1F31300C1F330
:100620000A5640F4801543F48013A7EB0608101B0C
:10063000D64608F2FD3873EB050002D308F1010835
:1006400001E092185B41B8F1000F03DA0020014687
:10065000BDE8F08D00204FF48011064684460EE080
:10066000171B73EB050705D3121B63EB050306434A
:100670004CEA010C49084FEA300092185B4150EAFD
:100680000107EDD152EA030012D082EA040083EAA6
:100690000501084305D0101BAB4106D201220023FF
:1006A00006E000224FF0004302E06FF00102531019
:1006B0001AEB06004CEB085110EB0A0041EB0B0162
:1006C000BDE8F04DFFF734BFC1F30A52C1F3130187
:1006D00040F2FF3341F480119A4202DA00200146D1
:1006E000704740F233439A42A2F2334202DC524254
:1006F000FFF7FCBEFFF7EBBE064C074D06E0E068D7
:1007000040F0010394E8070098471034AC42F6D358
:10071000FFF7F0FC542300087423000800BFFEE735
:1007200008B50121042000F0EDFC8020ADF80000A8
:1007300004208DF803006946014800F031FA08BD35
:100740000008014008B50121042000F0DBFC8020F6
:10075000ADF8000010208DF8030003208DF8020092
:100760006946024800F01CFA08BD0000000801407C
:1007700070B50025FFF7E6FF80212C4800F0A4FAB1
:10078000122001F0F8FC8021284800F09FFA282070
:1007900001F0FEFCFFF7C4FF142001F0F9FC8021FA
:1007A000224800F088FA002829D104E0012001F055
:1007B000EFFC681CC5B280211C4800F07CFA08B927
:1007C000642DF3DB002504E0012001F0E1FC681C4E
:1007D000C5B28021154800F06EFA012801D1642DC0
:1007E000F2DB0025002405E000F026F8104908554A
:1007F000601CC4B2052CF7DB322001F0C9FC0C48A8
:1008000000780B494978084409498978084408491F
:10081000C978084407490870054800790978884272
:1008200001D1012070BD0020FCE70000000801405C
:1008300000000020050000202DE9F04100250024E3
:1008400000262CE004E0012001F0A2FC601CC4B2F0
:100850008021154800F02FFA08B9642CF3DB00243E
:100860001E2001F095FC002780210F4800F023FA9C
:10087000012800D1012704E0012001F089FC601C5F
:10088000C4B28021084800F016FA012801D1642C76
:10089000F2DB00246806050E3D43701CC6B2082E2C
:1008A000D0DB2846BDE8F081000801407047000019
:1008B00010B54FF480710348FFF74DFC002002494A
:1008C000088010BD300000202400002008B5012160
:1008D000042000F017FC10208DF803008002ADF812
:1008E000000003208DF802006946304800F058F9F6
:1008F00000224FF480412D4800F0EAF9FA2001F07F
:100900003AFC01229103294800F0E2F94FF4FA7011
:1009100001F031FCFFF7CCFF25A000F0D5FD03E08E
:100920004FF4FA7001F027FC23A124A000F0B6F8E0
:100930000028F5D123A000F0C7FD03E04FF4FA70C2
:1009400001F019FC1CA122A000F0A8F80028F5D1A4
:1009500023A000F0B9FD03E04FF4FA7001F00BFCA6
:1009600015A123A000F09AF80028F5D124A000F0EA
:10097000ABFD03E04FF4FA7001F0FDFB23A125A0CD
:1009800000F08CF80028F5D12DA000F09DFD03E0CB
:100990004FF4FA7001F0EFFB2DA12FA000F07EF8CC
:1009A0000028F5D137A000F08FFD08BD00100140F0
:1009B000312E2041540D0A004F4B000041540D0AC6
:1009C00000000000322E2043574D4F44450D0A00D1
:1009D00041542B43574D4F44453D310D0A00000013
:1009E000332E2041542B4357444843500D0A0000F6
:1009F00041542B4357444843503D312C310D0A009C
:100A0000342E2043574A41500D0A0000474F5420CE
:100A10004950000041542B43574A41503D226363E3
:100A200063636363222C226368656E7A68657975F7
:100A3000736869776F62616261220D0A00000000CD
:100A4000352E2043495053544152540D0A000000A2
:100A5000434F4E4E4543540041542B434950535449
:100A60004152543D22544350222C223139322E31EE
:100A700036382E34332E313835222C383038300D7C
:100A80000A000000362E20455350383236362049B1
:100A90006E6974204F4B0D0A000000002DE9F041F3
:100AA00004460D46C82613A000F00EFD2046FFF7B1
:100AB0007BFB87B23A462146134800F0A4FE12E0C1
:100AC00000F054F848B929461048FFF75BFB20B105
:100AD000FFF7EEFE0020BDE8F0810DA000F0F4FC71
:100AE000642001F048FB3000A6F10101CEB2E7D14D
:100AF0000120F0E7496E736964652053656E6443B5
:100B00006D64310D0A0000000044004030000020F8
:100B1000496E736964652053656E64436D64320D7C
:100B20000A00000030B589B004460D46FFF7C0FE4C
:100B30002A4608A101A800F08FFE0AA101A8FFF72C
:100B4000ADFF20B92A462146074800F05CFE09B0F7
:100B500030BD000041542B43495053454E443D2580
:100B6000640D0A003E000000004400400A4800886E
:100B700008B9012070470848008808490988884258
:100B800003D1002004490880F4E7034800880349A2
:100B900008800120EEE7000024000020260000204D
:100BA0002DE9F04102460025002600200023002404
:100BB000002791F803C00CF00F0591F803C00CF06A
:100BC000100CBCF1000F03D091F802C04CEA0505EF
:100BD00091F800C0BCF1000F31D0146800202BE068
:100BE0004FF0010C0CFA00F3B1F800C00CEA030658
:100BF0009E4220D183004FF00F0C0CFA03F7BC4348
:100C000005FA03FC4CEA040491F803C0BCF1280F78
:100C100006D14FF0010C0CFA00FCC2F814C00AE037
:100C200091F803C0BCF1480F05D14FF0010C0CFA4C
:100C300000FCC2F810C0401C0828D1D31460B1F8E1
:100C400000C0BCF1FF0F34DD546800202EE000F13D
:100C5000080C4FF0010808FA0CF3B1F800C00CEAD8
:100C600003069E4221D183004FF00F0C0CFA03F7CC
:100C7000BC4305FA03FC4CEA040491F803C0BCF140
:100C8000280F05D100F1080C08FA0CF8C2F81480FE
:100C900091F803C0BCF1480F07D100F1080C4FF0E8
:100CA000010808FA0CF8C2F81080401C0828CED3BE
:100CB0005460BDE8F0810246002093680B400BB100
:100CC000012000E0002070474161704701617047DA
:100CD0000AB1016100E04161704700BFFEE700001A
:100CE00008B501211C2000F00DFA0320ADF800002A
:100CF00010208DF8030003208DF802006946024899
:100D0000FFF74EFF08BD0000000C014010B504467F
:100D1000207B012802D1206801F060FA00202060C9
:100D20006060A060207310BD0246002301230DE027
:100D300002F07F000870D2092AB1087840F08000E4
:100D40000870491C01E0184670475B1C042BEFDD5E
:100D50004FF0FF30F8E770B504460E4600252068D6
:100D600098B901202073304601F0BEFA2060206857
:100D7000E0B100206060A66003E0002021684855D3
:100D80006D1CA068A842F8D810E00220207303E090
:100D90000020216848556D1CA068A842F8D80020A2
:100DA0006060A068B04201D20020206070BD2DE9D3
:100DB000FF4F83B0834617469946139C00250026B3
:100DC0000020029001908046BBF1000F03D101206A
:100DD00007B0BDE8F08F00260AE00498805D232864
:100DE00003D00498805D2B2801D10220F0E7761C07
:100DF0000498805D0028F0D148F03008119808B1BF
:100E000048F0010806EB0900851C109820B1012864
:100E100004D002280AD105E000BF09E048F002082A
:100E2000AD1C05E048F00408AD1C01E00320CFE74D
:100E300000BF8FB33878022821D14FF0000A00BFDD
:100E400050460AF1010A385C7D28F9D1AAF1030A5B
:100E50000AF1070002900298A9EB000AE81CA0EB37
:100E60000A012046FFF777FF206808B90420AFE7A2
:100E7000EA1CA2EB0A012068FFF76DF919E0691D71
:100E80002046FFF768FF206808B90420A0E7691D25
:100E90002068FFF760F90CE0FFE7691D2046FFF7C7
:100EA0005AFF206808B9042092E7691D2068FFF7FF
:100EB00052F96168481C6060206800F80180D4E93C
:100EC000000281182846FFF72FFF019001980028A3
:100ED00004DA2046FFF71AFF052079E761680198D8
:100EE00008446060C6F307216268501C6060206897
:100EF00081546268501C606020688654D4E90012F6
:100F0000881832460499FFF756F9606830446060EB
:100F1000109860B14FEA1B216268501C6060206825
:100F200081546268501C6060206800F802B0C7B14C
:100F3000387802280BD1D4E9001288183946029A71
:100F4000FFF7F0F8616802980844606009E0D4E9AE
:100F5000001288184A463946FFF7E4F860684844AA
:100F60006060002034E700002DE9FF4107460D4690
:100F700090461E460A9C01200021CDE90001EB1C91
:100F80000A460FA1CDE902040A20FFF710FF88B935
:100F90006168481C606020684654C5F30721626898
:100FA000501C6060206881546268501C606020683A
:100FB000855403E0012004B0BDE8F0810020FAE789
:100FC0002464700000BFFEE77047000070B5002188
:100FD00000230F22C47804B3154C246804F4E064A1
:100FE000C4F5E064210AC1F10403CA40447804FA5C
:100FF00003F184781440214309010E4C0678A15571
:10100000047804F01F050124AC4005786D11AD0093
:1010100005F1E025C5F8004109E0047804F01F055A
:101020000124AC40044D0678761145F8264070BD89
:101030000CED00E000E400E080E100E00249014343
:10104000024A1160704700000000FA050CED00E054
:1010500010B588B0044620216846FFF77CF8124896
:101060004378027811A1684600F0F6FB69462046F5
:10107000FFF77CF820216846FFF76DF80A48C3782F
:1010800082780EA1684600F0E7FB69462046FFF72C
:101090006DF821460EA000F0CFFB2046FFF784F844
:1010A000C0B208B010BD00000000002048756D6996
:1010B000646974792C25642E25643B0054656D7039
:1010C0007265747572652C25642E25643B000000E2
:1010D0006275665F6D7174743D25730D0A000000C2
:1010E0007047000029B1064AD2690243044BDA6115
:1010F00004E0034AD2698243014BDA617047000081
:101100000010024029B1064A92690243044B9A61D9
:1011100004E0034A92698243014B9A6170470000E0
:101120000010024030B500210022002400232D4D84
:101130006D6805F00C0121B1042905D0082923D1DF
:1011400005E0294D056022E0274D05601FE0254D93
:101150006D6805F47012234D6D6805F48034022526
:1011600005EB92421CB9214D554305600BE01D4D26
:101170006D6805F400351DB11C4D5543056002E056
:10118000194D5543056002E0174D056000BF00BFD3
:10119000144D6D6805F0F0010909154D6B5C05688B
:1011A000DD4045600F4D6D6805F4E061090A104DA2
:1011B0006B5C4568DD4085600A4D6D6805F46051E3
:1011C000C90A0B4D6B5C4568DD40C560054D6D6817
:1011D00005F44041890B074D6B5CC568B5FBF3F521
:1011E000056130BD0010024000127A0000093D0088
:1011F0000600002016000020704710B500F002F82D
:1012000010BD00000CB5002001900090334800682C
:1012100040F480303149086000BF3048006800F475
:10122000003000900198401C0190009818B9019876
:10123000B0F5A06FF1D12948006800F4003010B17A
:101240000120009001E0002000900098012843D187
:101250002348006840F010002149086008460068F3
:1012600020F0030008600846006840F002000860B3
:101270001A4840681949486008464068486008466E
:10128000406840F4806048600846406820F47C1064
:1012900048600846406840F4E81048600846006826
:1012A00040F08070086000BF0C48006800F00070DB
:1012B0000028F9D00948406820F003000749486039
:1012C0000846406840F00200486000BF034840689C
:1012D00000F00C000828F9D10CBD000000100240FD
:1012E000002002407047000010B51348006840F02D
:1012F00001001149086008464068104908400E493D
:101300004860084600680E4908400B4908600846D6
:10131000006820F4802008600846406820F4FE0041
:1013200048604FF41F008860FFF767FF4FF00060D0
:101330000449086010BD0000001002400000FFF8E2
:10134000FFFFF6FE08ED00E030B58DB000200990FB
:101350000A900B900C9000240025202101A8FEF794
:10136000FAFE01A8FFF774FE0446002C24D009A859
:10137000052300222146009010A0FFF7F5FDC0B91B
:1013800008E001A8415D0A9A501C0A90099881540E
:10139000681C05B2A542F4DB0A9A91B20998FFF7DE
:1013A000C1FB09A00A9900F047FA09A8FFF7AEFCB3
:1013B00002E009A000F040FA0DB030BD39373530F9
:1013C000353139323800000053656E6420256420C1
:1013D00042797465730D0A005741524E3A094544EB
:1013E000505F4E6577427566666572204661696C2E
:1013F00065640D0A0000000010B540F2255109484F
:1014000000F03BF960B140F22551064800F00DF9BB
:10141000044800F0EDF9C4B22146024800F0EDF9AD
:1014200010BD00000038014010B586B0044601210F
:1014300044F20400FFF766FE4FF40070ADF81400AC
:1014400003208DF8160018208DF8170005A91C48F8
:10145000FFF7A6FB4FF48060ADF8140004208DF870
:10146000170005A91648FFF79BFB25208DF8000003
:1014700003208DF801008DF8020001208DF8030093
:101480006846FFF7A3FD01940020ADF80800ADF811
:101490000A00ADF80C00ADF810000C20ADF80E00FD
:1014A00001A9084800F038F9012240F22551054809
:1014B00000F00DF90121034800F0C6F806B010BD98
:1014C00000080140003801400FB410B5B4B000244A
:1014D00037A80090C92101A8009B369A00F0D0F9E6
:1014E0000EE02046621CD4B201AA115C0B4800F049
:1014F00084F900BF4021094800F0B2F80028F9D073
:10150000C82C04DA01A8FEF74FFEA042E9D800205B
:10151000009034B010BC5DF814FB000000380140AE
:1015200010B540F225510E4800F0A7F8B0B10D48B3
:101530000088FF2802D900200A4908800848001DB9
:101540000088C1B2074802880088401C054B1880FB
:10155000054881542021024800F05EF810BD0000CB
:1015600000440040240000203000002010B586B068
:10157000044601210420FFF7C5FD01214804FFF7BF
:10158000B1FD0820ADF8140004208DF8170005A95E
:101590001F48FFF705FB0420ADF8140003208DF869
:1015A000160018208DF8170005A91948FFF7F8FA5A
:1015B00001940020ADF80800ADF80A00ADF80C0069
:1015C000ADF810000C20ADF80E0001A9114800F094
:1015D000A3F8012240F225510E4800F078F80121CD
:1015E0000C4800F031F84FF4E060FFF727FD2620AB
:1015F0008DF8000003208DF801008DF80200012015
:101600008DF803006846FFF7E1FC06B010BD00004E
:10161000000801400044004001F40072B2F5007F70
:1016200000D100BFCA430280704710B500220023DA
:1016300040F66A14A14200D100BF0A12012494406E
:10164000A3B2DC43048010BD21B1828942F4005270
:10165000828104E082894DF6FF731A4082817047CF
:1016600002460020B1F5007F00D100BF13880B4077
:101670000BB1012000E00020704770B50246002445
:1016800000230025002040F66A16B14200D100BFB9
:10169000C1F3421501F01F03012606FA03F3012DE1
:1016A00002D19689334006E0022D02D1168A3340DA
:1016B00001E0968A33400C12012606FA04F41688DB
:1016C000344013B10CB1012000E0002070BDF0B532
:1016D0000346002400260025002040F66A17B94280
:1016E00000D100BF1846C1F3421401F01F060127C4
:1016F00007FA06F5012C01D10C3004E0022C01D1CF
:10170000103000E014301AB107682F43076002E080
:101710000768AF430760F0BD2DE9F04786B0054686
:101720000E460024A24600BFA1460027B08900B1A2
:1017300000BF2F462C8A4CF6FF700440F08804430B
:101740002C82AC894EF6F3100440B08831890843EE
:10175000718908430443AC81AC8A4FF6FF400440D2
:10176000B0890443AC8201A8FFF7DCFC1F48874224
:1017700002D1DDF810A001E0DDF80CA0A88900F48A
:10178000004040B10AEBCA0000EB0A103168490082
:10179000B0FBF1F807E00AEBCA0000EB0A10316871
:1017A0008900B0FBF1F86420B8FBF0F004012009D7
:1017B000642101FB1089A88900F4004040B1322067
:1017C00000EBC900B0FBF1F000F00700044308E0B3
:1017D000322000EB09106421B0FBF1F000F00F00A3
:1017E00004432C8106B0BDE8F087000000380140BA
:1017F00001468888C0F308007047C1F30802828060
:10180000704700BFFEE72DE9F04107460C4615463C
:1018100000260DE014F8011B3846FFF7EEFF00BF6D
:1018200040213846FFF71CFF0028F9D0701C86B213
:10183000AE42EFDBBDE8F0810FB4054B10B503A954
:10184000044A029800F0F0F810BC5DF814FB0000A8
:10185000C12100081C0000200FB4084B10B504A9DA
:1018600002AA039800F0E0F8044602A9002000F064
:101870007DFC204610BC5DF814FB00006D210008C3
:101880007CB5491E1C461546CDE90001044B6A464D
:101890002146284600F0C8F8009A002111707CBD4E
:1018A0005721000802E008C8121F08C1002AFAD117
:1018B00070477047002001E001C1121F002AFBD1D0
:1018C000704700002DE9FF5FDDE90220010DDDF822
:1018D00038B0024318D044F61050A1F2FF31414312
:1018E0000D140F98012820D0A5EB0B00401C5FEAD7
:1018F000000A4FF00004474EDFF81C91A046504606
:1019000016D5CAF1000728E00F98012443A2012848
:1019100008D0002100980F9BC0E90021C0E90243D4
:10192000BDE8FF9F6FEA0B01F4E7CBF10000DEE7B3
:10193000074612E0F80707D022463346404649469C
:10194000FEF7F4FC80468946224633461046194687
:10195000FEF7ECFC04460E467F10002FEAD1DDE9CD
:101960000201BAF1000F42464B4602DAFEF7DEFCF6
:1019700001E0FEF73AFE04460E460022284BFEF731
:1019800047FD03D84FF0FF30014607E00022254B0A
:1019900020463146FEF723FCFEF796FE102409E0B0
:1019A000002C0ADB0A220023FEF760FD019B303287
:1019B0001A55641E50EA0102F2D1641C019AC4F166
:1019C000110314440F9A012A03D0012208430DD1B8
:1019D0000AE0084304D000204FF0110B0F9080E77D
:1019E000A3EB0B056D1E0DE05B4504DD4FF000021F
:1019F00005F1010504E003DA4FF00002A5F101054D
:101A0000002AECD000980F99C0E90231C0E90045E6
:101A100086E70000000024400000F03F3000000096
:101A20000000F0430000E03F2DE9FF4F95B09B46DA
:101A30008946064600250FE2252877D1002427464F
:101A4000F84A0121059400E0044316F8013F203BC9
:101A500001FA03F01042F7D130782A2811D06FF044
:101A60002F033078A0F13002092A16D8059A44F0E5
:101A7000020402EB820203EB42021044761C059042
:101A8000EFE759F8042B0592002A03DA504244F498
:101A90000054059044F00204761C30782E2816D1AC
:101AA00016F8010F44F004042A280DD06FF02F021D
:101AB0003078A0F13003092B09D807EB870302EB3C
:101AC0004303C718761CF3E759F8047B761C30787B
:101AD0006C280FD006DC4C2817D068280DD06A2857
:101AE00014D104E0742810D07A280FD10DE044F40A
:101AF00000140AE044F4801401E044F440147278C5
:101B0000824202D104F58014761C761C3078662857
:101B10000BD013DC582877D009DC002875D0452875
:101B2000F6D04628F4D047281AD19DE118E0632862
:101B300035D0642879D0652812D195E1702873D00A
:101B400008DC6728F1D069286FD06E280DD06F2887
:101B500006D1B5E073282CD0752875D0782874D0BC
:101B60005A46179990476D1C75E1C4F3025002283C
:101B700009D003280DD0D9F8001004280DD00D602D
:101B800009F1040967E1D9F80010EA17C1E9005228
:101B9000F6E7D9F800100D80F2E70D70F0E719F8BC
:101BA000041B8DF8001000208DF80100EA4601208A
:101BB00003E059F804AB4FF0FF3061074FF000012C
:101BC00002D40DE008F101018846B9420FDA8045E0
:101BD000F8DB1AF808100029F4D108E008F1010137
:101BE00088468142FADB1AF808100029F6D10598D8
:101BF0005B46A0EB080721463846179A00F094FA96
:101C0000284400EB080507E04DE029E10DE01AF853
:101C1000010B5A4617999047B8F10108F7D25B4675
:101C200021463846179A13E142E00A220092C4F393
:101C300002524FF0000A022A08D059F804CB032AB6
:101C40004FEAEC710AD00DE029E02AE009F1070122
:101C500021F00702F2E802C1914609E00FFA8CFC7C
:101C60004FEAEC71042A03D14FFA8CFC4FEAEC7175
:101C7000002907DA0A460021DCF1000C61EB0201C1
:101C80002D2202E0220504D52B228DF8042001220A
:101C900003E0E20701D02022F7E7904659E00A214D
:101CA00002E010220DE010214FF0000A00910BE03D
:101CB00010224FF0000A44F004040827009203E0C9
:101CC00008224FF0000A0092C4F30252022A05D003
:101CD00059F804CB0021032A08D009E009F10701D3
:101CE00021F00702F2E802C1914605E01FFA8CFCE0
:101CF000042A01D10CF0FF0C4FF00008220728D570
:101D0000702806D0009B83F0100353EA0A0305D025
:101D10000EE040228DF80420012208E05CEA010276
:101D200006D030228DF804208DF80500022290465E
:101D3000009B83F0080353EA0A030AD15CEA01021C
:101D400001D1620705D530228DF804204FF001083B
:101D50007F1E582804D034A003900EA802900DE0F6
:101D600036A0F9E753466046009AFEF77FFB8446AB
:101D70000398825C0298401E029002705CEA0100A7
:101D8000F0D1029806A9081A00F1200A600702D5CE
:101D900024F4803400E00127574502DDA7EB0A0058
:101DA00000E0002000EB0A01009005984144401A31
:101DB0000590E00306D45B462146179A059800F08B
:101DC000B3F90544002706E001A85A46C05D1799FB
:101DD00090476D1C7F1C4745F6DBE0030CD55B4646
:101DE0002146179A059800F09FF9054404E0302039
:101DF0005A46179990476D1C0099481E009000297B
:101E0000F5DC08E0029802995A460078491C0291D4
:101E1000179990476D1CBAF10001AAF1010AF1DC93
:101E200065E100000928010030313233343536379E
:101E30003839616263646566000000003031323316
:101E400034353637383941424344454600000000B6
:101E500000F058F90544761C307800287FF4ECAD8A
:101E600019B02846BDE8F08F620700D4062709F1B3
:101E7000070222F0070CFCE80223E14603F00048C9
:101E80005FEA080C02D00FF2702C0DE05FEA045CF0
:101E900002D50FF2682C07E05FEAC47C02D00FF293
:101EA000602C01E0AFF2700C4FF0FF3823F00043DC
:101EB000CDF850C065280CD006DC452809D046284E
:101EC0001DD047283DD13DE0662818D067287ED137
:101ED00038E00021112F01DB112000E0781CCDE952
:101EE000000106A90EA8FFF7EDFCDDE90F010E9A2F
:101EF00003910021009207F1010A04914DE04FF097
:101F000000400097CDE9011006A90EA8FFF7DAFC02
:101F1000DDE90F0203920E9B11990022DDF80CA05F
:101F20000093049211B9791C00EB010AB7EB0A0087
:101F300004D4C0F1FF3007F1010A0490AAEB0700B6
:101F4000019044E0012F00DA01270021112F01DD6B
:101F5000112000E03846CDE9000106A90EA8FFF7E0
:101F6000B1FCDDE90F010E9A03910021049100926A
:101F7000BA4621070CD40399514500DA8A46BAF1D2
:101F8000010F05DD009AAAF10101515C302908D04A
:101F9000B84202DA10F1040F06DA0121CDE901108E
:101FA00015E0AAF10101E9E7002805DC04990144E4
:101FB0000491AAEB000102E0411C514500DD8A4674
:101FC0000499401A401C01904FF0004002902007F5
:101FD00004D40198504501DBCDF8048000208DF831
:101FE0004F0002980DF14F07B0F1004F25D02B2084
:101FF0000E9002984FF0020800280CDA404202903E
:102000002D200E9007E00A210298FEF719FA3031D0
:10201000029007F8011DB8F10001A8F10108F2DCF7
:1020200002980028EFD1791E0E980870307800F0E1
:10203000200040F0450007F8020D12A8C01B00F177
:1020400007081498007800B1012000EB0A010198FC
:1020500001EBE07105984144401A401E0590E003F1
:1020600006D45B462146179A059800F05DF80544B2
:102070001498007818B15A46179990476D1CE003E0
:1020800024D55B462146179A059800F04DF8054483
:102090001CE00498002807DBDDE90301884203DD2A
:1020A0000098405C179901E0179930205A469047F4
:1020B000049805F10105401C04900198401E019010
:1020C00004D12E205A46179990476D1CBAF1000191
:1020D000AAF1010ADDDC05E017F8010B5A46179951
:1020E00090476D1CB8F10001A8F10108F4DC5B46D3
:1020F0002146179A0598ABE62D0000002B00000042
:10210000200000002DE9F041044600251E46174638
:10211000880404D405E039462020B0476D1C641EB5
:10212000F9D52846BDE8F0812DE9F04104460025A7
:102130001E469046C80301D5302700E020278804BA
:1021400004D505E041463846B0476D1C641EF9D5FC
:102150002846BDE8F0814A68002A06D00A68531C68
:102160000B6010704868401E486070470A68531C36
:102170000B601070704700B5034603E04FF47A70AF
:1021800000F006F81800A3F101018BB2F6D100BDF2
:1021900000EBC001C9004FF0E022516100219161C4
:1021A0000521116100BF4FF0E021096901F4803180
:1021B0000029F8D004214FF0E0221161704700009F
:1021C00000BF054A128802F04002002AF9D0C2B2CC
:1021D000014B1B1D1A8070470038014010B50028C4
:1021E00021D0114B0022001F196803E0814203D85F
:1021F0000A4649680029F9D152B11368841A9C42F1
:1022000004D1006818441060104602E0506000E0FD
:10221000186039B102680B1A934203D10B681A4453
:1022200002604968416010BD2800002008B500BF69
:10223000002400BF42F21070FFF79DFFFEF750FD33
:102240004FF4E130FFF7F0F818A0FFF73DF94FF435
:102250007A70FFF790FF4FF4E130FFF787F9FEF750
:1022600035FB15A0FFF730F94FF47A70FFF783FFC5
:102270001BE00EA0FFF728F9601C80B20446B0F501
:10228000FA7F12DBFEF774FA58B10F48C07800905D
:102290000D488378427801780CA0FFF715F9FFF715
:1022A00053F84FF4FA60FFF766FFE2E74448543111
:1022B00031204F4B3A0A0000383236365F494E49DA
:1022C000545F454E440A00000000002048756D3DF3
:1022D000202564202E25642054656D703D256420E2
:1022E0002E25640D0A000000F0B50B30154D20F0CE
:1022F00007010024144A0FE003688B420BD38B4282
:1023000005D95E1A43184768C3E9006700E04368CF
:10231000136002C004E0021D10680028ECD12046C2
:10232000002802D1286808B10020F0BD064A0748FD
:102330001060074A121A22F00702C0E900240120A7
:102340002860D7E72C00002028000020340100205E
:10235000300300207423000800000020300000003B
:10236000A4180008A4230008300000200007000083
:10237000B418000800000000000000000000010286
:10238000030401020304060708090204060800000A
:10239000000000000000000000000000000000003D
:0423A0000000000039
:0400000508000101ED
:00000001FF
